{
  "_format": "hh-sol-artifact-1",
  "contractName": "EntergateMarket",
  "sourceName": "contracts/EntergateMarket.sol",
  "abi": [
    {
      "inputs": [
        {
          "internalType": "string",
          "name": "_userID",
          "type": "string"
        },
        {
          "internalType": "address",
          "name": "_hostAddress",
          "type": "address"
        }
      ],
      "stateMutability": "nonpayable",
      "type": "constructor"
    },
    {
      "anonymous": false,
      "inputs": [
        {
          "indexed": false,
          "internalType": "address",
          "name": "nftContract",
          "type": "address"
        },
        {
          "indexed": false,
          "internalType": "string",
          "name": "name",
          "type": "string"
        },
        {
          "indexed": false,
          "internalType": "string",
          "name": "description",
          "type": "string"
        },
        {
          "indexed": false,
          "internalType": "string",
          "name": "profileImage",
          "type": "string"
        },
        {
          "indexed": false,
          "internalType": "uint256",
          "name": "totalNFT",
          "type": "uint256"
        },
        {
          "indexed": false,
          "internalType": "uint256",
          "name": "sell",
          "type": "uint256"
        },
        {
          "indexed": false,
          "internalType": "uint256",
          "name": "sold",
          "type": "uint256"
        },
        {
          "indexed": false,
          "internalType": "uint256",
          "name": "price",
          "type": "uint256"
        },
        {
          "indexed": false,
          "internalType": "uint256",
          "name": "serviceFee",
          "type": "uint256"
        }
      ],
      "name": "NFTProfileEvent",
      "type": "event"
    },
    {
      "anonymous": false,
      "inputs": [
        {
          "indexed": false,
          "internalType": "address",
          "name": "nftContract",
          "type": "address"
        },
        {
          "indexed": false,
          "internalType": "uint256",
          "name": "tokenId",
          "type": "uint256"
        },
        {
          "indexed": false,
          "internalType": "address",
          "name": "seller",
          "type": "address"
        },
        {
          "indexed": false,
          "internalType": "address",
          "name": "owner",
          "type": "address"
        }
      ],
      "name": "NFTRegisteredEvent",
      "type": "event"
    },
    {
      "inputs": [
        {
          "internalType": "address",
          "name": "_to",
          "type": "address"
        }
      ],
      "name": "CheckBalance",
      "outputs": [
        {
          "internalType": "uint256",
          "name": "",
          "type": "uint256"
        }
      ],
      "stateMutability": "view",
      "type": "function"
    },
    {
      "inputs": [
        {
          "internalType": "address",
          "name": "",
          "type": "address"
        }
      ],
      "name": "NFTProfileMap",
      "outputs": [
        {
          "internalType": "address",
          "name": "nftContract",
          "type": "address"
        },
        {
          "internalType": "string",
          "name": "name",
          "type": "string"
        },
        {
          "internalType": "string",
          "name": "description",
          "type": "string"
        },
        {
          "internalType": "string",
          "name": "profileImage",
          "type": "string"
        },
        {
          "internalType": "uint256",
          "name": "totalNFT",
          "type": "uint256"
        },
        {
          "internalType": "uint256",
          "name": "sell",
          "type": "uint256"
        },
        {
          "internalType": "uint256",
          "name": "sold",
          "type": "uint256"
        },
        {
          "internalType": "uint256",
          "name": "price",
          "type": "uint256"
        },
        {
          "internalType": "uint256",
          "name": "serviceFee",
          "type": "uint256"
        },
        {
          "internalType": "bool",
          "name": "isActive",
          "type": "bool"
        }
      ],
      "stateMutability": "view",
      "type": "function"
    },
    {
      "inputs": [
        {
          "internalType": "address",
          "name": "",
          "type": "address"
        },
        {
          "internalType": "uint256",
          "name": "",
          "type": "uint256"
        }
      ],
      "name": "NFTRegisteredMap",
      "outputs": [
        {
          "internalType": "address",
          "name": "nftContract",
          "type": "address"
        },
        {
          "internalType": "uint256",
          "name": "tokenId",
          "type": "uint256"
        },
        {
          "internalType": "address payable",
          "name": "seller",
          "type": "address"
        },
        {
          "internalType": "address payable",
          "name": "owner",
          "type": "address"
        },
        {
          "internalType": "bool",
          "name": "listed",
          "type": "bool"
        }
      ],
      "stateMutability": "view",
      "type": "function"
    },
    {
      "inputs": [
        {
          "internalType": "address",
          "name": "_nftContract",
          "type": "address"
        },
        {
          "internalType": "uint256",
          "name": "_qtyNFT",
          "type": "uint256"
        }
      ],
      "name": "buyNft",
      "outputs": [],
      "stateMutability": "payable",
      "type": "function"
    },
    {
      "inputs": [],
      "name": "getAllRegNftLength",
      "outputs": [
        {
          "internalType": "uint256",
          "name": "",
          "type": "uint256"
        }
      ],
      "stateMutability": "view",
      "type": "function"
    },
    {
      "inputs": [],
      "name": "getAllSaleNft",
      "outputs": [
        {
          "components": [
            {
              "internalType": "address",
              "name": "nftContract",
              "type": "address"
            },
            {
              "internalType": "uint256",
              "name": "tokenId",
              "type": "uint256"
            },
            {
              "internalType": "address payable",
              "name": "seller",
              "type": "address"
            },
            {
              "internalType": "address payable",
              "name": "owner",
              "type": "address"
            },
            {
              "internalType": "bool",
              "name": "listed",
              "type": "bool"
            }
          ],
          "internalType": "struct EntergateMarket.NFTRegistered[]",
          "name": "",
          "type": "tuple[]"
        }
      ],
      "stateMutability": "view",
      "type": "function"
    },
    {
      "inputs": [],
      "name": "getAllSoldNft",
      "outputs": [
        {
          "components": [
            {
              "internalType": "address",
              "name": "nftContract",
              "type": "address"
            },
            {
              "internalType": "uint256",
              "name": "tokenId",
              "type": "uint256"
            },
            {
              "internalType": "address payable",
              "name": "seller",
              "type": "address"
            },
            {
              "internalType": "address payable",
              "name": "owner",
              "type": "address"
            },
            {
              "internalType": "bool",
              "name": "listed",
              "type": "bool"
            }
          ],
          "internalType": "struct EntergateMarket.NFTRegistered[]",
          "name": "",
          "type": "tuple[]"
        }
      ],
      "stateMutability": "view",
      "type": "function"
    },
    {
      "inputs": [],
      "name": "getContractArr",
      "outputs": [
        {
          "internalType": "address[]",
          "name": "",
          "type": "address[]"
        }
      ],
      "stateMutability": "view",
      "type": "function"
    },
    {
      "inputs": [],
      "name": "getHostAddress",
      "outputs": [
        {
          "internalType": "address",
          "name": "",
          "type": "address"
        }
      ],
      "stateMutability": "view",
      "type": "function"
    },
    {
      "inputs": [
        {
          "internalType": "address",
          "name": "_nftContract",
          "type": "address"
        }
      ],
      "name": "getOwnerNft",
      "outputs": [
        {
          "components": [
            {
              "internalType": "address",
              "name": "nftContract",
              "type": "address"
            },
            {
              "internalType": "uint256",
              "name": "tokenId",
              "type": "uint256"
            },
            {
              "internalType": "address payable",
              "name": "seller",
              "type": "address"
            },
            {
              "internalType": "address payable",
              "name": "owner",
              "type": "address"
            },
            {
              "internalType": "bool",
              "name": "listed",
              "type": "bool"
            }
          ],
          "internalType": "struct EntergateMarket.NFTRegistered[]",
          "name": "",
          "type": "tuple[]"
        }
      ],
      "stateMutability": "view",
      "type": "function"
    },
    {
      "inputs": [
        {
          "internalType": "address",
          "name": "_nftContract",
          "type": "address"
        }
      ],
      "name": "getProfileNft",
      "outputs": [
        {
          "components": [
            {
              "internalType": "address",
              "name": "nftContract",
              "type": "address"
            },
            {
              "internalType": "string",
              "name": "name",
              "type": "string"
            },
            {
              "internalType": "string",
              "name": "description",
              "type": "string"
            },
            {
              "internalType": "string",
              "name": "profileImage",
              "type": "string"
            },
            {
              "internalType": "uint256",
              "name": "totalNFT",
              "type": "uint256"
            },
            {
              "internalType": "uint256",
              "name": "sell",
              "type": "uint256"
            },
            {
              "internalType": "uint256",
              "name": "sold",
              "type": "uint256"
            },
            {
              "internalType": "uint256",
              "name": "price",
              "type": "uint256"
            },
            {
              "internalType": "uint256",
              "name": "serviceFee",
              "type": "uint256"
            },
            {
              "internalType": "bool",
              "name": "isActive",
              "type": "bool"
            }
          ],
          "internalType": "struct EntergateMarket.NFTProfile",
          "name": "",
          "type": "tuple"
        }
      ],
      "stateMutability": "view",
      "type": "function"
    },
    {
      "inputs": [
        {
          "internalType": "address",
          "name": "_nftContract",
          "type": "address"
        }
      ],
      "name": "getSaleContractNft",
      "outputs": [
        {
          "components": [
            {
              "internalType": "address",
              "name": "nftContract",
              "type": "address"
            },
            {
              "internalType": "uint256",
              "name": "tokenId",
              "type": "uint256"
            },
            {
              "internalType": "address payable",
              "name": "seller",
              "type": "address"
            },
            {
              "internalType": "address payable",
              "name": "owner",
              "type": "address"
            },
            {
              "internalType": "bool",
              "name": "listed",
              "type": "bool"
            }
          ],
          "internalType": "struct EntergateMarket.NFTRegistered[]",
          "name": "",
          "type": "tuple[]"
        }
      ],
      "stateMutability": "view",
      "type": "function"
    },
    {
      "inputs": [
        {
          "internalType": "address",
          "name": "_nftContract",
          "type": "address"
        }
      ],
      "name": "getSaleContractNftLength",
      "outputs": [
        {
          "internalType": "uint256",
          "name": "",
          "type": "uint256"
        }
      ],
      "stateMutability": "view",
      "type": "function"
    },
    {
      "inputs": [
        {
          "internalType": "address",
          "name": "_nftContract",
          "type": "address"
        }
      ],
      "name": "getSoldContractNft",
      "outputs": [
        {
          "components": [
            {
              "internalType": "address",
              "name": "nftContract",
              "type": "address"
            },
            {
              "internalType": "uint256",
              "name": "tokenId",
              "type": "uint256"
            },
            {
              "internalType": "address payable",
              "name": "seller",
              "type": "address"
            },
            {
              "internalType": "address payable",
              "name": "owner",
              "type": "address"
            },
            {
              "internalType": "bool",
              "name": "listed",
              "type": "bool"
            }
          ],
          "internalType": "struct EntergateMarket.NFTRegistered[]",
          "name": "",
          "type": "tuple[]"
        }
      ],
      "stateMutability": "view",
      "type": "function"
    },
    {
      "inputs": [
        {
          "internalType": "address",
          "name": "_nftContract",
          "type": "address"
        }
      ],
      "name": "getSoldContractNftLength",
      "outputs": [
        {
          "internalType": "uint256",
          "name": "",
          "type": "uint256"
        }
      ],
      "stateMutability": "view",
      "type": "function"
    },
    {
      "inputs": [],
      "name": "getTotalSaleReg",
      "outputs": [
        {
          "internalType": "uint256",
          "name": "",
          "type": "uint256"
        }
      ],
      "stateMutability": "view",
      "type": "function"
    },
    {
      "inputs": [],
      "name": "getTotalSoldReg",
      "outputs": [
        {
          "internalType": "uint256",
          "name": "",
          "type": "uint256"
        }
      ],
      "stateMutability": "view",
      "type": "function"
    },
    {
      "inputs": [],
      "name": "getUserID",
      "outputs": [
        {
          "internalType": "string",
          "name": "",
          "type": "string"
        }
      ],
      "stateMutability": "view",
      "type": "function"
    },
    {
      "inputs": [],
      "name": "hostAddress",
      "outputs": [
        {
          "internalType": "address",
          "name": "",
          "type": "address"
        }
      ],
      "stateMutability": "view",
      "type": "function"
    },
    {
      "inputs": [
        {
          "internalType": "address",
          "name": "_nftContract",
          "type": "address"
        },
        {
          "internalType": "string",
          "name": "_name",
          "type": "string"
        },
        {
          "internalType": "string",
          "name": "_description",
          "type": "string"
        },
        {
          "internalType": "uint256",
          "name": "_totalNFT",
          "type": "uint256"
        },
        {
          "internalType": "uint256",
          "name": "_price",
          "type": "uint256"
        },
        {
          "internalType": "uint256",
          "name": "_serviceFee",
          "type": "uint256"
        },
        {
          "internalType": "string",
          "name": "_profileImage",
          "type": "string"
        }
      ],
      "name": "registerNftBulk",
      "outputs": [],
      "stateMutability": "payable",
      "type": "function"
    },
    {
      "inputs": [
        {
          "internalType": "address payable",
          "name": "_to",
          "type": "address"
        }
      ],
      "name": "sendViaCall",
      "outputs": [],
      "stateMutability": "payable",
      "type": "function"
    },
    {
      "inputs": [
        {
          "internalType": "address",
          "name": "_nftContract",
          "type": "address"
        },
        {
          "internalType": "address payable",
          "name": "_buyer",
          "type": "address"
        },
        {
          "internalType": "uint256",
          "name": "_tokenId",
          "type": "uint256"
        },
        {
          "internalType": "bool",
          "name": "_listed",
          "type": "bool"
        }
      ],
      "name": "updateNFTData",
      "outputs": [],
      "stateMutability": "nonpayable",
      "type": "function"
    },
    {
      "inputs": [],
      "name": "userID",
      "outputs": [
        {
          "internalType": "string",
          "name": "",
          "type": "string"
        }
      ],
      "stateMutability": "view",
      "type": "function"
    }
  ],
  "bytecode": "0x60806040523480156200001157600080fd5b506040516200534d3803806200534d8339818101604052810190620000379190620002d3565b600160008190555033600360006101000a81548173ffffffffffffffffffffffffffffffffffffffff021916908373ffffffffffffffffffffffffffffffffffffffff160217905550816001908162000091919062000584565b5080600260006101000a81548173ffffffffffffffffffffffffffffffffffffffff021916908373ffffffffffffffffffffffffffffffffffffffff16021790555050506200066b565b6000604051905090565b600080fd5b600080fd5b600080fd5b600080fd5b6000601f19601f8301169050919050565b7f4e487b7100000000000000000000000000000000000000000000000000000000600052604160045260246000fd5b6200014482620000f9565b810181811067ffffffffffffffff821117156200016657620001656200010a565b5b80604052505050565b60006200017b620000db565b905062000189828262000139565b919050565b600067ffffffffffffffff821115620001ac57620001ab6200010a565b5b620001b782620000f9565b9050602081019050919050565b60005b83811015620001e4578082015181840152602081019050620001c7565b60008484015250505050565b60006200020762000201846200018e565b6200016f565b905082815260208101848484011115620002265762000225620000f4565b5b62000233848285620001c4565b509392505050565b600082601f830112620002535762000252620000ef565b5b815162000265848260208601620001f0565b91505092915050565b600073ffffffffffffffffffffffffffffffffffffffff82169050919050565b60006200029b826200026e565b9050919050565b620002ad816200028e565b8114620002b957600080fd5b50565b600081519050620002cd81620002a2565b92915050565b60008060408385031215620002ed57620002ec620000e5565b5b600083015167ffffffffffffffff8111156200030e576200030d620000ea565b5b6200031c858286016200023b565b92505060206200032f85828601620002bc565b9150509250929050565b600081519050919050565b7f4e487b7100000000000000000000000000000000000000000000000000000000600052602260045260246000fd5b600060028204905060018216806200038c57607f821691505b602082108103620003a257620003a162000344565b5b50919050565b60008190508160005260206000209050919050565b60006020601f8301049050919050565b600082821b905092915050565b6000600883026200040c7fffffffffffffffffffffffffffffffffffffffffffffffffffffffffffffffff82620003cd565b620004188683620003cd565b95508019841693508086168417925050509392505050565b6000819050919050565b6000819050919050565b6000620004656200045f620004598462000430565b6200043a565b62000430565b9050919050565b6000819050919050565b620004818362000444565b6200049962000490826200046c565b848454620003da565b825550505050565b600090565b620004b0620004a1565b620004bd81848462000476565b505050565b5b81811015620004e557620004d9600082620004a6565b600181019050620004c3565b5050565b601f8211156200053457620004fe81620003a8565b6200050984620003bd565b8101602085101562000519578190505b620005316200052885620003bd565b830182620004c2565b50505b505050565b600082821c905092915050565b6000620005596000198460080262000539565b1980831691505092915050565b600062000574838362000546565b9150826002028217905092915050565b6200058f8262000339565b67ffffffffffffffff811115620005ab57620005aa6200010a565b5b620005b7825462000373565b620005c4828285620004e9565b600060209050601f831160018114620005fc5760008415620005e7578287015190505b620005f3858262000566565b86555062000663565b601f1984166200060c86620003a8565b60005b8281101562000636578489015182556001820191506020850194506020810190506200060f565b8683101562000656578489015162000652601f89168262000546565b8355505b6001600288020188555050505b505050505050565b614cd2806200067b6000396000f3fe6080604052600436106101405760003560e01c8063830c29ae116100b6578063e302418a1161006f578063e302418a14610473578063e7f863f81461049e578063e99367c2146104c9578063eb238c7714610506578063f01de47814610531578063f6effd9a1461055c57610140565b8063830c29ae1461034a5780638e9854bc146103665780639ba82720146103a3578063c41b7368146103e0578063d2da29c71461040b578063d629055c1461043657610140565b80633f4f5431116101085780633f4f54311461022c5780634ddf4f8f1461024857806351540da3146102645780635772df331461028f5780636eecfa1b146102cc578063779c5bb31461030d57610140565b80630dffe37c14610145578063236c0267146101705780632e4d59c4146101995780632eeb6d7f146101d6578063352e104214610201575b600080fd5b34801561015157600080fd5b5061015a6105a2565b604051610167919061395a565b60405180910390f35b34801561017c57600080fd5b5061019760048036038101906101929190613a89565b610669565b005b3480156101a557600080fd5b506101c060048036038101906101bb9190613af0565b61078a565b6040516101cd919061395a565b60405180910390f35b3480156101e257600080fd5b506101eb6107ab565b6040516101f89190613bad565b60405180910390f35b34801561020d57600080fd5b5061021661083d565b604051610223919061395a565b60405180910390f35b61024660048036038101906102419190613d04565b610904565b005b610262600480360381019061025d9190613dfa565b610fec565b005b34801561027057600080fd5b50610279611619565b6040516102869190613f8d565b60405180910390f35b34801561029b57600080fd5b506102b660048036038101906102b19190613af0565b611af3565b6040516102c3919061395a565b60405180910390f35b3480156102d857600080fd5b506102f360048036038101906102ee9190613dfa565b611b44565b604051610304959493929190613fdc565b60405180910390f35b34801561031957600080fd5b50610334600480360381019061032f9190613af0565b611c04565b604051610341919061395a565b60405180910390f35b610364600480360381019061035f919061402f565b611c55565b005b34801561037257600080fd5b5061038d60048036038101906103889190613af0565b611d05565b60405161039a9190613f8d565b60405180910390f35b3480156103af57600080fd5b506103ca60048036038101906103c59190613af0565b6120a2565b6040516103d7919061418e565b60405180910390f35b3480156103ec57600080fd5b506103f5612355565b604051610402919061395a565b60405180910390f35b34801561041757600080fd5b50610420612376565b60405161042d91906141b0565b60405180910390f35b34801561044257600080fd5b5061045d60048036038101906104589190613af0565b61239c565b60405161046a9190613f8d565b60405180910390f35b34801561047f57600080fd5b5061048861273a565b6040516104959190613bad565b60405180910390f35b3480156104aa57600080fd5b506104b36127c8565b6040516104c0919061427a565b60405180910390f35b3480156104d557600080fd5b506104f060048036038101906104eb9190613af0565b612856565b6040516104fd9190613f8d565b60405180910390f35b34801561051257600080fd5b5061051b612ca4565b60405161052891906141b0565b60405180910390f35b34801561053d57600080fd5b50610546612cce565b6040516105539190613f8d565b60405180910390f35b34801561056857600080fd5b50610583600480360381019061057e9190613af0565b6131a9565b6040516105999a9998979695949392919061429c565b60405180910390f35b600080600680549050905060008060005b8381101561065f57600681815481106105cf576105ce61434d565b5b9060005260206000200160009054906101000a900473ffffffffffffffffffffffffffffffffffffffff169250600460008473ffffffffffffffffffffffffffffffffffffffff1673ffffffffffffffffffffffffffffffffffffffff168152602001908152602001600020600501548261064a91906143ab565b91508080610657906143df565b9150506105b3565b5080935050505090565b82600560008673ffffffffffffffffffffffffffffffffffffffff1673ffffffffffffffffffffffffffffffffffffffff16815260200190815260200160002083815481106106bb576106ba61434d565b5b906000526020600020906004020160030160006101000a81548173ffffffffffffffffffffffffffffffffffffffff021916908373ffffffffffffffffffffffffffffffffffffffff16021790555080600560008673ffffffffffffffffffffffffffffffffffffffff1673ffffffffffffffffffffffffffffffffffffffff168152602001908152602001600020838154811061075c5761075b61434d565b5b906000526020600020906004020160030160146101000a81548160ff02191690831515021790555050505050565b60008173ffffffffffffffffffffffffffffffffffffffff16319050919050565b6060600180546107ba90614456565b80601f01602080910402602001604051908101604052809291908181526020018280546107e690614456565b80156108335780601f1061080857610100808354040283529160200191610833565b820191906000526020600020905b81548152906001019060200180831161081657829003601f168201915b5050505050905090565b600080600680549050905060008060005b838110156108fa576006818154811061086a5761086961434d565b5b9060005260206000200160009054906101000a900473ffffffffffffffffffffffffffffffffffffffff169250600460008473ffffffffffffffffffffffffffffffffffffffff1673ffffffffffffffffffffffffffffffffffffffff16815260200190815260200160002060060154826108e591906143ab565b915080806108f2906143df565b91505061084e565b5080935050505090565b61090c6133c2565b6000831161094f576040517f08c379a0000000000000000000000000000000000000000000000000000000008152600401610946906144d3565b60405180910390fd5b6006879080600181540180825580915050600190039060005260206000200160009091909190916101000a81548173ffffffffffffffffffffffffffffffffffffffff021916908373ffffffffffffffffffffffffffffffffffffffff16021790555086600460008973ffffffffffffffffffffffffffffffffffffffff1673ffffffffffffffffffffffffffffffffffffffff16815260200190815260200160002060000160006101000a81548173ffffffffffffffffffffffffffffffffffffffff021916908373ffffffffffffffffffffffffffffffffffffffff16021790555085600460008973ffffffffffffffffffffffffffffffffffffffff1673ffffffffffffffffffffffffffffffffffffffff1681526020019081526020016000206001019081610a82919061469f565b5084600460008973ffffffffffffffffffffffffffffffffffffffff1673ffffffffffffffffffffffffffffffffffffffff1681526020019081526020016000206002019081610ad2919061469f565b5080600460008973ffffffffffffffffffffffffffffffffffffffff1673ffffffffffffffffffffffffffffffffffffffff1681526020019081526020016000206003019081610b22919061469f565b5083600460008973ffffffffffffffffffffffffffffffffffffffff1673ffffffffffffffffffffffffffffffffffffffff1681526020019081526020016000206004018190555083600460008973ffffffffffffffffffffffffffffffffffffffff1673ffffffffffffffffffffffffffffffffffffffff16815260200190815260200160002060050181905550600460008873ffffffffffffffffffffffffffffffffffffffff1673ffffffffffffffffffffffffffffffffffffffff1681526020019081526020016000205082600460008973ffffffffffffffffffffffffffffffffffffffff1673ffffffffffffffffffffffffffffffffffffffff1681526020019081526020016000206007018190555081600460008973ffffffffffffffffffffffffffffffffffffffff1673ffffffffffffffffffffffffffffffffffffffff168152602001908152602001600020600801819055506001600460008973ffffffffffffffffffffffffffffffffffffffff1673ffffffffffffffffffffffffffffffffffffffff16815260200190815260200160002060090160006101000a81548160ff02191690831515021790555060005b84811015610fda578773ffffffffffffffffffffffffffffffffffffffff166323b872dd3330846040518463ffffffff1660e01b8152600401610d2293929190614771565b600060405180830381600087803b158015610d3c57600080fd5b505af1158015610d50573d6000803e3d6000fd5b50505050610d5c613859565b88816000019073ffffffffffffffffffffffffffffffffffffffff16908173ffffffffffffffffffffffffffffffffffffffff16815250508181602001818152505033816040019073ffffffffffffffffffffffffffffffffffffffff16908173ffffffffffffffffffffffffffffffffffffffff168152505030816060019073ffffffffffffffffffffffffffffffffffffffff16908173ffffffffffffffffffffffffffffffffffffffff16815250506001816080019015159081151581525050600560008a73ffffffffffffffffffffffffffffffffffffffff1673ffffffffffffffffffffffffffffffffffffffff16815260200190815260200160002081908060018154018082558091505060019003906000526020600020906004020160009091909190915060008201518160000160006101000a81548173ffffffffffffffffffffffffffffffffffffffff021916908373ffffffffffffffffffffffffffffffffffffffff1602179055506020820151816001015560408201518160020160006101000a81548173ffffffffffffffffffffffffffffffffffffffff021916908373ffffffffffffffffffffffffffffffffffffffff16021790555060608201518160030160006101000a81548173ffffffffffffffffffffffffffffffffffffffff021916908373ffffffffffffffffffffffffffffffffffffffff16021790555060808201518160030160146101000a81548160ff02191690831515021790555050507f410bdcd5b6707dbf9113f2ec6452cbc9ddbb820f22da3b456d36bcedea418c3a89833330604051610fbe94939291906147a8565b60405180910390a1508080610fd2906143df565b915050610cdd565b50610fe3613411565b50505050505050565b610ff46133c2565b6000610fff8361239c565b9050600081519050600080600061104b6040518060400160405280600c81526020017f6e6674436f6e74726163743a00000000000000000000000000000000000000008152508861341b565b61108a6040518060400160405280600981526020017f6e667453746f636b3a0000000000000000000000000000000000000000000000815250856134b7565b6110c96040518060400160405280600781526020017f7174794e46543a00000000000000000000000000000000000000000000000000815250876134b7565b858410156110d685613553565b6040516020016110e6919061489b565b60405160208183030381529060405290611136576040517f08c379a000000000000000000000000000000000000000000000000000000000815260040161112d9190613bad565b60405180910390fd5b5085600460008973ffffffffffffffffffffffffffffffffffffffff1673ffffffffffffffffffffffffffffffffffffffff1681526020019081526020016000206007015461118591906148bd565b9250612710600460008973ffffffffffffffffffffffffffffffffffffffff1673ffffffffffffffffffffffffffffffffffffffff16815260200190815260200160002060080154846111d891906148bd565b6111e2919061492e565b915081836111f0919061495f565b90506112316040518060400160405280600b81526020017f6d73672e76616c75653a20000000000000000000000000000000000000000000815250346134b7565b6112706040518060400160405280600c81526020017f746f74616c50726963653a200000000000000000000000000000000000000000815250846134b7565b6112af6040518060400160405280601481526020017f746f74616c546f4d61726b65744f776e65723a20000000000000000000000000815250826134b7565b6112ee6040518060400160405280601181526020017f746f74616c536572766963654665653a20000000000000000000000000000000815250836134b7565b82341015611331576040517f08c379a000000000000000000000000000000000000000000000000000000000815260040161132890614a05565b60405180910390fd5b600260009054906101000a900473ffffffffffffffffffffffffffffffffffffffff1673ffffffffffffffffffffffffffffffffffffffff166108fc839081150290604051600060405180830381858888f19350505050158015611399573d6000803e3d6000fd5b50600360009054906101000a900473ffffffffffffffffffffffffffffffffffffffff1673ffffffffffffffffffffffffffffffffffffffff166108fc829081150290604051600060405180830381858888f19350505050158015611402573d6000803e3d6000fd5b50600033905060005b878110156114de578873ffffffffffffffffffffffffffffffffffffffff166342842e0e30848a85815181106114445761144361434d565b5b6020026020010151602001516040518463ffffffff1660e01b815260040161146e93929190614a7a565b600060405180830381600087803b15801561148857600080fd5b505af115801561149c573d6000803e3d6000fd5b505050506114cb89838984815181106114b8576114b761434d565b5b6020026020010151602001516000610669565b80806114d6906143df565b91505061140b565b5086600460008a73ffffffffffffffffffffffffffffffffffffffff1673ffffffffffffffffffffffffffffffffffffffff1681526020019081526020016000206005015461152d919061495f565b600460008a73ffffffffffffffffffffffffffffffffffffffff1673ffffffffffffffffffffffffffffffffffffffff1681526020019081526020016000206005018190555086600460008a73ffffffffffffffffffffffffffffffffffffffff1673ffffffffffffffffffffffffffffffffffffffff168152602001908152602001600020600601546115c191906143ab565b600460008a73ffffffffffffffffffffffffffffffffffffffff1673ffffffffffffffffffffffffffffffffffffffff16815260200190815260200160002060060181905550505050505050611615613411565b5050565b606060006006805490509050600061162f61083d565b905060008167ffffffffffffffff81111561164d5761164c613bd9565b5b60405190808252806020026020018201604052801561168657816020015b611673613859565b81526020019060019003908161166b5790505b5090506116c86040518060400160405280600e81526020017f746f74616c536f6c645265673a20000000000000000000000000000000000000815250836134b7565b600080600080600090505b86811015611ae657600681815481106116ef576116ee61434d565b5b9060005260206000200160009054906101000a900473ffffffffffffffffffffffffffffffffffffffff169350600560008573ffffffffffffffffffffffffffffffffffffffff1673ffffffffffffffffffffffffffffffffffffffff1681526020019081526020016000208054905092506117a06040518060400160405280600d81526020017f6e6674436f6e74726163743a20000000000000000000000000000000000000008152508561341b565b6117df6040518060400160405280601081526020017f636f6e74726163744c656e6774683a2000000000000000000000000000000000815250846134b7565b60005b83811015611ad257600560008673ffffffffffffffffffffffffffffffffffffffff1673ffffffffffffffffffffffffffffffffffffffff168152602001908152602001600020818154811061183b5761183a61434d565b5b906000526020600020906004020160030160149054906101000a900460ff16611abf57600560008673ffffffffffffffffffffffffffffffffffffffff1673ffffffffffffffffffffffffffffffffffffffff16815260200190815260200160002081815481106118af576118ae61434d565b5b90600052602060002090600402016040518060a00160405290816000820160009054906101000a900473ffffffffffffffffffffffffffffffffffffffff1673ffffffffffffffffffffffffffffffffffffffff1673ffffffffffffffffffffffffffffffffffffffff168152602001600182015481526020016002820160009054906101000a900473ffffffffffffffffffffffffffffffffffffffff1673ffffffffffffffffffffffffffffffffffffffff1673ffffffffffffffffffffffffffffffffffffffff1681526020016003820160009054906101000a900473ffffffffffffffffffffffffffffffffffffffff1673ffffffffffffffffffffffffffffffffffffffff1673ffffffffffffffffffffffffffffffffffffffff1681526020016003820160149054906101000a900460ff161515151581525050868481518110611a0257611a0161434d565b5b6020026020010181905250611aaf836040518060400160405280600c81526020017f202d20746f6b656e49643a200000000000000000000000000000000000000000815250600560008973ffffffffffffffffffffffffffffffffffffffff1673ffffffffffffffffffffffffffffffffffffffff1681526020019081526020016000208481548110611a9857611a9761434d565b5b906000526020600020906004020160010154613621565b600183611abc91906143ab565b92505b8080611aca906143df565b9150506117e2565b508080611ade906143df565b9150506116d3565b5083965050505050505090565b600080600460008473ffffffffffffffffffffffffffffffffffffffff1673ffffffffffffffffffffffffffffffffffffffff16815260200190815260200160002060060154905080915050919050565b60056020528160005260406000208181548110611b6057600080fd5b9060005260206000209060040201600091509150508060000160009054906101000a900473ffffffffffffffffffffffffffffffffffffffff16908060010154908060020160009054906101000a900473ffffffffffffffffffffffffffffffffffffffff16908060030160009054906101000a900473ffffffffffffffffffffffffffffffffffffffff16908060030160149054906101000a900460ff16905085565b600080600460008473ffffffffffffffffffffffffffffffffffffffff1673ffffffffffffffffffffffffffffffffffffffff16815260200190815260200160002060050154905080915050919050565b60008173ffffffffffffffffffffffffffffffffffffffff1634604051611c7b90614ae2565b60006040518083038185875af1925050503d8060008114611cb8576040519150601f19603f3d011682016040523d82523d6000602084013e611cbd565b606091505b5050905080611d01576040517f08c379a0000000000000000000000000000000000000000000000000000000008152600401611cf890614b43565b60405180910390fd5b5050565b60606000600560008473ffffffffffffffffffffffffffffffffffffffff1673ffffffffffffffffffffffffffffffffffffffff1681526020019081526020016000208054905090506000611d5984611af3565b905060008167ffffffffffffffff811115611d7757611d76613bd9565b5b604051908082528060200260200182016040528015611db057816020015b611d9d613859565b815260200190600190039081611d955790505b50905060005b8381101561209657600560008773ffffffffffffffffffffffffffffffffffffffff1673ffffffffffffffffffffffffffffffffffffffff1681526020019081526020016000208181548110611e0f57611e0e61434d565b5b906000526020600020906004020160030160149054906101000a900460ff1661208357611ed36040518060400160405280600881526020017f746f6b656e49643a000000000000000000000000000000000000000000000000815250600560008973ffffffffffffffffffffffffffffffffffffffff1673ffffffffffffffffffffffffffffffffffffffff1681526020019081526020016000208381548110611ebc57611ebb61434d565b5b9060005260206000209060040201600101546134b7565b600560008773ffffffffffffffffffffffffffffffffffffffff1673ffffffffffffffffffffffffffffffffffffffff1681526020019081526020016000208181548110611f2457611f2361434d565b5b90600052602060002090600402016040518060a00160405290816000820160009054906101000a900473ffffffffffffffffffffffffffffffffffffffff1673ffffffffffffffffffffffffffffffffffffffff1673ffffffffffffffffffffffffffffffffffffffff168152602001600182015481526020016002820160009054906101000a900473ffffffffffffffffffffffffffffffffffffffff1673ffffffffffffffffffffffffffffffffffffffff1673ffffffffffffffffffffffffffffffffffffffff1681526020016003820160009054906101000a900473ffffffffffffffffffffffffffffffffffffffff1673ffffffffffffffffffffffffffffffffffffffff1673ffffffffffffffffffffffffffffffffffffffff1681526020016003820160149054906101000a900460ff1615151515815250508282815181106120775761207661434d565b5b60200260200101819052505b808061208e906143df565b915050611db6565b50809350505050919050565b6120aa6138cc565b600460008373ffffffffffffffffffffffffffffffffffffffff1673ffffffffffffffffffffffffffffffffffffffff168152602001908152602001600020604051806101400160405290816000820160009054906101000a900473ffffffffffffffffffffffffffffffffffffffff1673ffffffffffffffffffffffffffffffffffffffff1673ffffffffffffffffffffffffffffffffffffffff16815260200160018201805461215b90614456565b80601f016020809104026020016040519081016040528092919081815260200182805461218790614456565b80156121d45780601f106121a9576101008083540402835291602001916121d4565b820191906000526020600020905b8154815290600101906020018083116121b757829003601f168201915b505050505081526020016002820180546121ed90614456565b80601f016020809104026020016040519081016040528092919081815260200182805461221990614456565b80156122665780601f1061223b57610100808354040283529160200191612266565b820191906000526020600020905b81548152906001019060200180831161224957829003601f168201915b5050505050815260200160038201805461227f90614456565b80601f01602080910402602001604051908101604052809291908181526020018280546122ab90614456565b80156122f85780601f106122cd576101008083540402835291602001916122f8565b820191906000526020600020905b8154815290600101906020018083116122db57829003601f168201915b5050505050815260200160048201548152602001600582015481526020016006820154815260200160078201548152602001600882015481526020016009820160009054906101000a900460ff1615151515815250509050919050565b600061235f61083d565b6123676105a2565b61237191906143ab565b905090565b600260009054906101000a900473ffffffffffffffffffffffffffffffffffffffff1681565b60606000600560008473ffffffffffffffffffffffffffffffffffffffff1673ffffffffffffffffffffffffffffffffffffffff16815260200190815260200160002080549050905060006123f084611c04565b905060008167ffffffffffffffff81111561240e5761240d613bd9565b5b60405190808252806020026020018201604052801561244757816020015b612434613859565b81526020019060019003908161242c5790505b50905060005b8381101561272e57600560008773ffffffffffffffffffffffffffffffffffffffff1673ffffffffffffffffffffffffffffffffffffffff16815260200190815260200160002081815481106124a6576124a561434d565b5b906000526020600020906004020160030160149054906101000a900460ff161561271b5761256b6040518060400160405280600881526020017f746f6b656e49643a000000000000000000000000000000000000000000000000815250600560008973ffffffffffffffffffffffffffffffffffffffff1673ffffffffffffffffffffffffffffffffffffffff16815260200190815260200160002083815481106125545761255361434d565b5b9060005260206000209060040201600101546134b7565b600560008773ffffffffffffffffffffffffffffffffffffffff1673ffffffffffffffffffffffffffffffffffffffff16815260200190815260200160002081815481106125bc576125bb61434d565b5b90600052602060002090600402016040518060a00160405290816000820160009054906101000a900473ffffffffffffffffffffffffffffffffffffffff1673ffffffffffffffffffffffffffffffffffffffff1673ffffffffffffffffffffffffffffffffffffffff168152602001600182015481526020016002820160009054906101000a900473ffffffffffffffffffffffffffffffffffffffff1673ffffffffffffffffffffffffffffffffffffffff1673ffffffffffffffffffffffffffffffffffffffff1681526020016003820160009054906101000a900473ffffffffffffffffffffffffffffffffffffffff1673ffffffffffffffffffffffffffffffffffffffff1673ffffffffffffffffffffffffffffffffffffffff1681526020016003820160149054906101000a900460ff16151515158152505082828151811061270f5761270e61434d565b5b60200260200101819052505b8080612726906143df565b91505061244d565b50809350505050919050565b6001805461274790614456565b80601f016020809104026020016040519081016040528092919081815260200182805461277390614456565b80156127c05780601f10612795576101008083540402835291602001916127c0565b820191906000526020600020905b8154815290600101906020018083116127a357829003601f168201915b505050505081565b6060600680548060200260200160405190810160405280929190818152602001828054801561284c57602002820191906000526020600020905b8160009054906101000a900473ffffffffffffffffffffffffffffffffffffffff1673ffffffffffffffffffffffffffffffffffffffff1681526020019060010190808311612802575b5050505050905090565b60606000600560008473ffffffffffffffffffffffffffffffffffffffff1673ffffffffffffffffffffffffffffffffffffffff16815260200190815260200160002080549050905060008167ffffffffffffffff8111156128bb576128ba613bd9565b5b6040519080825280602002602001820160405280156128f457816020015b6128e1613859565b8152602001906001900390816128d95790505b5090506129366040518060400160405280600c81526020017f6e6674436f6e74726163743a00000000000000000000000000000000000000008152508561341b565b6129756040518060400160405280600981526020017f6e6674436f756e743a0000000000000000000000000000000000000000000000815250836134b7565b60005b82811015612c9957612a216040518060400160405280600881526020017f746f6b656e49643a000000000000000000000000000000000000000000000000815250600560008873ffffffffffffffffffffffffffffffffffffffff1673ffffffffffffffffffffffffffffffffffffffff1681526020019081526020016000208381548110612a0a57612a0961434d565b5b9060005260206000209060040201600101546134b7565b3373ffffffffffffffffffffffffffffffffffffffff16600560008773ffffffffffffffffffffffffffffffffffffffff1673ffffffffffffffffffffffffffffffffffffffff1681526020019081526020016000208281548110612a8957612a8861434d565b5b906000526020600020906004020160030160009054906101000a900473ffffffffffffffffffffffffffffffffffffffff1673ffffffffffffffffffffffffffffffffffffffff1603612c8657600560008673ffffffffffffffffffffffffffffffffffffffff1673ffffffffffffffffffffffffffffffffffffffff1681526020019081526020016000208181548110612b2757612b2661434d565b5b90600052602060002090600402016040518060a00160405290816000820160009054906101000a900473ffffffffffffffffffffffffffffffffffffffff1673ffffffffffffffffffffffffffffffffffffffff1673ffffffffffffffffffffffffffffffffffffffff168152602001600182015481526020016002820160009054906101000a900473ffffffffffffffffffffffffffffffffffffffff1673ffffffffffffffffffffffffffffffffffffffff1673ffffffffffffffffffffffffffffffffffffffff1681526020016003820160009054906101000a900473ffffffffffffffffffffffffffffffffffffffff1673ffffffffffffffffffffffffffffffffffffffff1673ffffffffffffffffffffffffffffffffffffffff1681526020016003820160149054906101000a900460ff161515151581525050828281518110612c7a57612c7961434d565b5b60200260200101819052505b8080612c91906143df565b915050612978565b508092505050919050565b6000600260009054906101000a900473ffffffffffffffffffffffffffffffffffffffff16905090565b6060600060068054905090506000612ce46105a2565b905060008167ffffffffffffffff811115612d0257612d01613bd9565b5b604051908082528060200260200182016040528015612d3b57816020015b612d28613859565b815260200190600190039081612d205790505b509050612d7d6040518060400160405280600e81526020017f746f74616c53616c655265673a20000000000000000000000000000000000000815250836134b7565b600080600080600090505b8681101561319c5760068181548110612da457612da361434d565b5b9060005260206000200160009054906101000a900473ffffffffffffffffffffffffffffffffffffffff169350600560008573ffffffffffffffffffffffffffffffffffffffff1673ffffffffffffffffffffffffffffffffffffffff168152602001908152602001600020805490509250612e556040518060400160405280600d81526020017f6e6674436f6e74726163743a20000000000000000000000000000000000000008152508561341b565b612e946040518060400160405280601081526020017f636f6e74726163744c656e6774683a2000000000000000000000000000000000815250846134b7565b60005b8381101561318857600560008673ffffffffffffffffffffffffffffffffffffffff1673ffffffffffffffffffffffffffffffffffffffff1681526020019081526020016000208181548110612ef057612eef61434d565b5b906000526020600020906004020160030160149054906101000a900460ff161561317557600560008673ffffffffffffffffffffffffffffffffffffffff1673ffffffffffffffffffffffffffffffffffffffff1681526020019081526020016000208181548110612f6557612f6461434d565b5b90600052602060002090600402016040518060a00160405290816000820160009054906101000a900473ffffffffffffffffffffffffffffffffffffffff1673ffffffffffffffffffffffffffffffffffffffff1673ffffffffffffffffffffffffffffffffffffffff168152602001600182015481526020016002820160009054906101000a900473ffffffffffffffffffffffffffffffffffffffff1673ffffffffffffffffffffffffffffffffffffffff1673ffffffffffffffffffffffffffffffffffffffff1681526020016003820160009054906101000a900473ffffffffffffffffffffffffffffffffffffffff1673ffffffffffffffffffffffffffffffffffffffff1673ffffffffffffffffffffffffffffffffffffffff1681526020016003820160149054906101000a900460ff1615151515815250508684815181106130b8576130b761434d565b5b6020026020010181905250613165836040518060400160405280600c81526020017f202d20746f6b656e49643a200000000000000000000000000000000000000000815250600560008973ffffffffffffffffffffffffffffffffffffffff1673ffffffffffffffffffffffffffffffffffffffff168152602001908152602001600020848154811061314e5761314d61434d565b5b906000526020600020906004020160010154613621565b60018361317291906143ab565b92505b8080613180906143df565b915050612e97565b508080613194906143df565b915050612d88565b5083965050505050505090565b60046020528060005260406000206000915090508060000160009054906101000a900473ffffffffffffffffffffffffffffffffffffffff16908060010180546131f290614456565b80601f016020809104026020016040519081016040528092919081815260200182805461321e90614456565b801561326b5780601f106132405761010080835404028352916020019161326b565b820191906000526020600020905b81548152906001019060200180831161324e57829003601f168201915b50505050509080600201805461328090614456565b80601f01602080910402602001604051908101604052809291908181526020018280546132ac90614456565b80156132f95780601f106132ce576101008083540402835291602001916132f9565b820191906000526020600020905b8154815290600101906020018083116132dc57829003601f168201915b50505050509080600301805461330e90614456565b80601f016020809104026020016040519081016040528092919081815260200182805461333a90614456565b80156133875780601f1061335c57610100808354040283529160200191613387565b820191906000526020600020905b81548152906001019060200180831161336a57829003601f168201915b5050505050908060040154908060050154908060060154908060070154908060080154908060090160009054906101000a900460ff1690508a565b600260005403613407576040517f08c379a00000000000000000000000000000000000000000000000000000000081526004016133fe90614baf565b60405180910390fd5b6002600081905550565b6001600081905550565b6134b38282604051602401613431929190614bcf565b6040516020818303038152906040527f319af333000000000000000000000000000000000000000000000000000000007bffffffffffffffffffffffffffffffffffffffffffffffffffffffff19166020820180517bffffffffffffffffffffffffffffffffffffffffffffffffffffffff83818316178352505050506136c0565b5050565b61354f82826040516024016134cd929190614bff565b6040516020818303038152906040527fb60e72cc000000000000000000000000000000000000000000000000000000007bffffffffffffffffffffffffffffffffffffffffffffffffffffffff19166020820180517bffffffffffffffffffffffffffffffffffffffffffffffffffffffff83818316178352505050506136c0565b5050565b606060006001613562846136da565b01905060008167ffffffffffffffff81111561358157613580613bd9565b5b6040519080825280601f01601f1916602001820160405280156135b35781602001600182028036833780820191505090505b509050600082602001820190505b600115613616578080600190039150507f3031323334353637383961626364656600000000000000000000000000000000600a86061a8153600a858161360a576136096148ff565b5b049450600085036135c1575b819350505050919050565b6136bb83838360405160240161363993929190614c2f565b6040516020818303038152906040527f37aa7d4c000000000000000000000000000000000000000000000000000000007bffffffffffffffffffffffffffffffffffffffffffffffffffffffff19166020820180517bffffffffffffffffffffffffffffffffffffffffffffffffffffffff83818316178352505050506136c0565b505050565b6136d7816136cf61382d61384e565b63ffffffff16565b50565b600080600090507a184f03e93ff9f4daa797ed6e38ed64bf6a1f0100000000000000008310613738577a184f03e93ff9f4daa797ed6e38ed64bf6a1f010000000000000000838161372e5761372d6148ff565b5b0492506040810190505b6d04ee2d6d415b85acef81000000008310613775576d04ee2d6d415b85acef8100000000838161376b5761376a6148ff565b5b0492506020810190505b662386f26fc1000083106137a457662386f26fc10000838161379a576137996148ff565b5b0492506010810190505b6305f5e10083106137cd576305f5e10083816137c3576137c26148ff565b5b0492506008810190505b61271083106137f25761271083816137e8576137e76148ff565b5b0492506004810190505b60648310613815576064838161380b5761380a6148ff565b5b0492506002810190505b600a8310613824576001810190505b80915050919050565b60006a636f6e736f6c652e6c6f679050600080835160208501845afa505050565b613937819050919050565b6040518060a00160405280600073ffffffffffffffffffffffffffffffffffffffff16815260200160008152602001600073ffffffffffffffffffffffffffffffffffffffff168152602001600073ffffffffffffffffffffffffffffffffffffffff1681526020016000151581525090565b604051806101400160405280600073ffffffffffffffffffffffffffffffffffffffff16815260200160608152602001606081526020016060815260200160008152602001600081526020016000815260200160008152602001600081526020016000151581525090565b61393f614c6d565b565b6000819050919050565b61395481613941565b82525050565b600060208201905061396f600083018461394b565b92915050565b6000604051905090565b600080fd5b600080fd5b600073ffffffffffffffffffffffffffffffffffffffff82169050919050565b60006139b482613989565b9050919050565b6139c4816139a9565b81146139cf57600080fd5b50565b6000813590506139e1816139bb565b92915050565b60006139f282613989565b9050919050565b613a02816139e7565b8114613a0d57600080fd5b50565b600081359050613a1f816139f9565b92915050565b613a2e81613941565b8114613a3957600080fd5b50565b600081359050613a4b81613a25565b92915050565b60008115159050919050565b613a6681613a51565b8114613a7157600080fd5b50565b600081359050613a8381613a5d565b92915050565b60008060008060808587031215613aa357613aa261397f565b5b6000613ab1878288016139d2565b9450506020613ac287828801613a10565b9350506040613ad387828801613a3c565b9250506060613ae487828801613a74565b91505092959194509250565b600060208284031215613b0657613b0561397f565b5b6000613b14848285016139d2565b91505092915050565b600081519050919050565b600082825260208201905092915050565b60005b83811015613b57578082015181840152602081019050613b3c565b60008484015250505050565b6000601f19601f8301169050919050565b6000613b7f82613b1d565b613b898185613b28565b9350613b99818560208601613b39565b613ba281613b63565b840191505092915050565b60006020820190508181036000830152613bc78184613b74565b905092915050565b600080fd5b600080fd5b7f4e487b7100000000000000000000000000000000000000000000000000000000600052604160045260246000fd5b613c1182613b63565b810181811067ffffffffffffffff82111715613c3057613c2f613bd9565b5b80604052505050565b6000613c43613975565b9050613c4f8282613c08565b919050565b600067ffffffffffffffff821115613c6f57613c6e613bd9565b5b613c7882613b63565b9050602081019050919050565b82818337600083830152505050565b6000613ca7613ca284613c54565b613c39565b905082815260208101848484011115613cc357613cc2613bd4565b5b613cce848285613c85565b509392505050565b600082601f830112613ceb57613cea613bcf565b5b8135613cfb848260208601613c94565b91505092915050565b600080600080600080600060e0888a031215613d2357613d2261397f565b5b6000613d318a828b016139d2565b975050602088013567ffffffffffffffff811115613d5257613d51613984565b5b613d5e8a828b01613cd6565b965050604088013567ffffffffffffffff811115613d7f57613d7e613984565b5b613d8b8a828b01613cd6565b9550506060613d9c8a828b01613a3c565b9450506080613dad8a828b01613a3c565b93505060a0613dbe8a828b01613a3c565b92505060c088013567ffffffffffffffff811115613ddf57613dde613984565b5b613deb8a828b01613cd6565b91505092959891949750929550565b60008060408385031215613e1157613e1061397f565b5b6000613e1f858286016139d2565b9250506020613e3085828601613a3c565b9150509250929050565b600081519050919050565b600082825260208201905092915050565b6000819050602082019050919050565b613e6f816139a9565b82525050565b613e7e81613941565b82525050565b613e8d816139e7565b82525050565b613e9c81613a51565b82525050565b60a082016000820151613eb86000850182613e66565b506020820151613ecb6020850182613e75565b506040820151613ede6040850182613e84565b506060820151613ef16060850182613e84565b506080820151613f046080850182613e93565b50505050565b6000613f168383613ea2565b60a08301905092915050565b6000602082019050919050565b6000613f3a82613e3a565b613f448185613e45565b9350613f4f83613e56565b8060005b83811015613f80578151613f678882613f0a565b9750613f7283613f22565b925050600181019050613f53565b5085935050505092915050565b60006020820190508181036000830152613fa78184613f2f565b905092915050565b613fb8816139a9565b82525050565b613fc7816139e7565b82525050565b613fd681613a51565b82525050565b600060a082019050613ff16000830188613faf565b613ffe602083018761394b565b61400b6040830186613fbe565b6140186060830185613fbe565b6140256080830184613fcd565b9695505050505050565b6000602082840312156140455761404461397f565b5b600061405384828501613a10565b91505092915050565b600082825260208201905092915050565b600061407882613b1d565b614082818561405c565b9350614092818560208601613b39565b61409b81613b63565b840191505092915050565b6000610140830160008301516140bf6000860182613e66565b50602083015184820360208601526140d7828261406d565b915050604083015184820360408601526140f1828261406d565b9150506060830151848203606086015261410b828261406d565b91505060808301516141206080860182613e75565b5060a083015161413360a0860182613e75565b5060c083015161414660c0860182613e75565b5060e083015161415960e0860182613e75565b5061010083015161416e610100860182613e75565b50610120830151614183610120860182613e93565b508091505092915050565b600060208201905081810360008301526141a881846140a6565b905092915050565b60006020820190506141c56000830184613faf565b92915050565b600081519050919050565b600082825260208201905092915050565b6000819050602082019050919050565b60006142038383613e66565b60208301905092915050565b6000602082019050919050565b6000614227826141cb565b61423181856141d6565b935061423c836141e7565b8060005b8381101561426d57815161425488826141f7565b975061425f8361420f565b925050600181019050614240565b5085935050505092915050565b60006020820190508181036000830152614294818461421c565b905092915050565b6000610140820190506142b2600083018d613faf565b81810360208301526142c4818c613b74565b905081810360408301526142d8818b613b74565b905081810360608301526142ec818a613b74565b90506142fb608083018961394b565b61430860a083018861394b565b61431560c083018761394b565b61432260e083018661394b565b61433061010083018561394b565b61433e610120830184613fcd565b9b9a5050505050505050505050565b7f4e487b7100000000000000000000000000000000000000000000000000000000600052603260045260246000fd5b7f4e487b7100000000000000000000000000000000000000000000000000000000600052601160045260246000fd5b60006143b682613941565b91506143c183613941565b92508282019050808211156143d9576143d861437c565b5b92915050565b60006143ea82613941565b91507fffffffffffffffffffffffffffffffffffffffffffffffffffffffffffffffff820361441c5761441b61437c565b5b600182019050919050565b7f4e487b7100000000000000000000000000000000000000000000000000000000600052602260045260246000fd5b6000600282049050600182168061446e57607f821691505b60208210810361448157614480614427565b5b50919050565b7f5072696365206d757374206265206174206c6561737420312077656900000000600082015250565b60006144bd601c83613b28565b91506144c882614487565b602082019050919050565b600060208201905081810360008301526144ec816144b0565b9050919050565b60008190508160005260206000209050919050565b60006020601f8301049050919050565b600082821b905092915050565b6000600883026145557fffffffffffffffffffffffffffffffffffffffffffffffffffffffffffffffff82614518565b61455f8683614518565b95508019841693508086168417925050509392505050565b6000819050919050565b600061459c61459761459284613941565b614577565b613941565b9050919050565b6000819050919050565b6145b683614581565b6145ca6145c2826145a3565b848454614525565b825550505050565b600090565b6145df6145d2565b6145ea8184846145ad565b505050565b5b8181101561460e576146036000826145d7565b6001810190506145f0565b5050565b601f82111561465357614624816144f3565b61462d84614508565b8101602085101561463c578190505b61465061464885614508565b8301826145ef565b50505b505050565b600082821c905092915050565b600061467660001984600802614658565b1980831691505092915050565b600061468f8383614665565b9150826002028217905092915050565b6146a882613b1d565b67ffffffffffffffff8111156146c1576146c0613bd9565b5b6146cb8254614456565b6146d6828285614612565b600060209050601f83116001811461470957600084156146f7578287015190505b6147018582614683565b865550614769565b601f198416614717866144f3565b60005b8281101561473f5784890151825560018201915060208501945060208101905061471a565b8683101561475c5784890151614758601f891682614665565b8355505b6001600288020188555050505b505050505050565b60006060820190506147866000830186613faf565b6147936020830185613faf565b6147a0604083018461394b565b949350505050565b60006080820190506147bd6000830187613faf565b6147ca602083018661394b565b6147d76040830185613faf565b6147e46060830184613faf565b95945050505050565b600081905092915050565b7f4e6f7420656e6f756768204e46542e204c61746573742073746f636b2069733a60008201527f2000000000000000000000000000000000000000000000000000000000000000602082015250565b60006148546021836147ed565b915061485f826147f8565b602182019050919050565b600061487582613b1d565b61487f81856147ed565b935061488f818560208601613b39565b80840191505092915050565b60006148a682614847565b91506148b2828461486a565b915081905092915050565b60006148c882613941565b91506148d383613941565b92508282026148e181613941565b915082820484148315176148f8576148f761437c565b5b5092915050565b7f4e487b7100000000000000000000000000000000000000000000000000000000600052601260045260246000fd5b600061493982613941565b915061494483613941565b925082614954576149536148ff565b5b828204905092915050565b600061496a82613941565b915061497583613941565b925082820390508181111561498d5761498c61437c565b5b92915050565b7f4e6f7420656e6f75676820657468657220746f20636f7665722061736b696e6760008201527f2070726963650000000000000000000000000000000000000000000000000000602082015250565b60006149ef602683613b28565b91506149fa82614993565b604082019050919050565b60006020820190508181036000830152614a1e816149e2565b9050919050565b6000614a40614a3b614a3684613989565b614577565b613989565b9050919050565b6000614a5282614a25565b9050919050565b6000614a6482614a47565b9050919050565b614a7481614a59565b82525050565b6000606082019050614a8f6000830186613faf565b614a9c6020830185614a6b565b614aa9604083018461394b565b949350505050565b600081905092915050565b50565b6000614acc600083614ab1565b9150614ad782614abc565b600082019050919050565b6000614aed82614abf565b9150819050919050565b7f4661696c656420746f2073656e64204574686572000000000000000000000000600082015250565b6000614b2d601483613b28565b9150614b3882614af7565b602082019050919050565b60006020820190508181036000830152614b5c81614b20565b9050919050565b7f5265656e7472616e637947756172643a207265656e7472616e742063616c6c00600082015250565b6000614b99601f83613b28565b9150614ba482614b63565b602082019050919050565b60006020820190508181036000830152614bc881614b8c565b9050919050565b60006040820190508181036000830152614be98185613b74565b9050614bf86020830184613faf565b9392505050565b60006040820190508181036000830152614c198185613b74565b9050614c28602083018461394b565b9392505050565b6000606082019050614c44600083018661394b565b8181036020830152614c568185613b74565b9050614c65604083018461394b565b949350505050565b7f4e487b7100000000000000000000000000000000000000000000000000000000600052605160045260246000fdfea2646970667358221220693642c9054cfc5d7a339eec3aab408b76d4b71e88277ac08999b26966a056a364736f6c63430008150033",
  "linkReferences": {},
  "deployedLinkReferences": {}
}