{
  "_format": "hh-sol-artifact-1",
  "contractName": "EntergateNFT",
  "sourceName": "contracts/EntergateNFT.sol",
  "abi": [
    {
      "inputs": [
        {
          "internalType": "address",
          "name": "_marketContract",
          "type": "address"
        },
        {
          "internalType": "string",
          "name": "_nftName",
          "type": "string"
        },
        {
          "internalType": "string",
          "name": "_nftSymbol",
          "type": "string"
        },
        {
          "internalType": "string",
          "name": "_nftDesc",
          "type": "string"
        }
      ],
      "stateMutability": "nonpayable",
      "type": "constructor"
    },
    {
      "anonymous": false,
      "inputs": [
        {
          "indexed": true,
          "internalType": "address",
          "name": "owner",
          "type": "address"
        },
        {
          "indexed": true,
          "internalType": "address",
          "name": "approved",
          "type": "address"
        },
        {
          "indexed": true,
          "internalType": "uint256",
          "name": "tokenId",
          "type": "uint256"
        }
      ],
      "name": "Approval",
      "type": "event"
    },
    {
      "anonymous": false,
      "inputs": [
        {
          "indexed": true,
          "internalType": "address",
          "name": "owner",
          "type": "address"
        },
        {
          "indexed": true,
          "internalType": "address",
          "name": "operator",
          "type": "address"
        },
        {
          "indexed": false,
          "internalType": "bool",
          "name": "approved",
          "type": "bool"
        }
      ],
      "name": "ApprovalForAll",
      "type": "event"
    },
    {
      "anonymous": false,
      "inputs": [
        {
          "indexed": false,
          "internalType": "uint256",
          "name": "_fromTokenId",
          "type": "uint256"
        },
        {
          "indexed": false,
          "internalType": "uint256",
          "name": "_toTokenId",
          "type": "uint256"
        }
      ],
      "name": "BatchMetadataUpdate",
      "type": "event"
    },
    {
      "anonymous": false,
      "inputs": [
        {
          "indexed": false,
          "internalType": "uint256",
          "name": "_tokenId",
          "type": "uint256"
        }
      ],
      "name": "MetadataUpdate",
      "type": "event"
    },
    {
      "anonymous": false,
      "inputs": [
        {
          "indexed": false,
          "internalType": "uint256",
          "name": "",
          "type": "uint256"
        }
      ],
      "name": "NFTMinted",
      "type": "event"
    },
    {
      "anonymous": false,
      "inputs": [
        {
          "indexed": true,
          "internalType": "address",
          "name": "from",
          "type": "address"
        },
        {
          "indexed": true,
          "internalType": "address",
          "name": "to",
          "type": "address"
        },
        {
          "indexed": true,
          "internalType": "uint256",
          "name": "tokenId",
          "type": "uint256"
        }
      ],
      "name": "Transfer",
      "type": "event"
    },
    {
      "inputs": [
        {
          "internalType": "address",
          "name": "to",
          "type": "address"
        },
        {
          "internalType": "uint256",
          "name": "tokenId",
          "type": "uint256"
        }
      ],
      "name": "approve",
      "outputs": [],
      "stateMutability": "nonpayable",
      "type": "function"
    },
    {
      "inputs": [
        {
          "internalType": "address",
          "name": "owner",
          "type": "address"
        }
      ],
      "name": "balanceOf",
      "outputs": [
        {
          "internalType": "uint256",
          "name": "",
          "type": "uint256"
        }
      ],
      "stateMutability": "view",
      "type": "function"
    },
    {
      "inputs": [
        {
          "internalType": "uint256",
          "name": "tokenId",
          "type": "uint256"
        },
        {
          "internalType": "string",
          "name": "_imgURL",
          "type": "string"
        },
        {
          "internalType": "string",
          "name": "_fileExt",
          "type": "string"
        }
      ],
      "name": "generateMetadata",
      "outputs": [
        {
          "internalType": "string",
          "name": "",
          "type": "string"
        }
      ],
      "stateMutability": "view",
      "type": "function"
    },
    {
      "inputs": [
        {
          "internalType": "uint256",
          "name": "tokenId",
          "type": "uint256"
        }
      ],
      "name": "getApproved",
      "outputs": [
        {
          "internalType": "address",
          "name": "",
          "type": "address"
        }
      ],
      "stateMutability": "view",
      "type": "function"
    },
    {
      "inputs": [],
      "name": "getTotalNFT",
      "outputs": [
        {
          "internalType": "uint256",
          "name": "",
          "type": "uint256"
        }
      ],
      "stateMutability": "view",
      "type": "function"
    },
    {
      "inputs": [
        {
          "internalType": "address",
          "name": "owner",
          "type": "address"
        },
        {
          "internalType": "address",
          "name": "operator",
          "type": "address"
        }
      ],
      "name": "isApprovedForAll",
      "outputs": [
        {
          "internalType": "bool",
          "name": "",
          "type": "bool"
        }
      ],
      "stateMutability": "view",
      "type": "function"
    },
    {
      "inputs": [
        {
          "internalType": "string",
          "name": "_tokenURI",
          "type": "string"
        }
      ],
      "name": "mint",
      "outputs": [],
      "stateMutability": "nonpayable",
      "type": "function"
    },
    {
      "inputs": [
        {
          "internalType": "uint256",
          "name": "_count",
          "type": "uint256"
        },
        {
          "internalType": "string",
          "name": "_imgURL",
          "type": "string"
        }
      ],
      "name": "mintNfts",
      "outputs": [],
      "stateMutability": "payable",
      "type": "function"
    },
    {
      "inputs": [],
      "name": "name",
      "outputs": [
        {
          "internalType": "string",
          "name": "",
          "type": "string"
        }
      ],
      "stateMutability": "view",
      "type": "function"
    },
    {
      "inputs": [
        {
          "internalType": "uint256",
          "name": "tokenId",
          "type": "uint256"
        }
      ],
      "name": "ownerOf",
      "outputs": [
        {
          "internalType": "address",
          "name": "",
          "type": "address"
        }
      ],
      "stateMutability": "view",
      "type": "function"
    },
    {
      "inputs": [
        {
          "internalType": "address",
          "name": "from",
          "type": "address"
        },
        {
          "internalType": "address",
          "name": "to",
          "type": "address"
        },
        {
          "internalType": "uint256",
          "name": "tokenId",
          "type": "uint256"
        }
      ],
      "name": "safeTransferFrom",
      "outputs": [],
      "stateMutability": "nonpayable",
      "type": "function"
    },
    {
      "inputs": [
        {
          "internalType": "address",
          "name": "from",
          "type": "address"
        },
        {
          "internalType": "address",
          "name": "to",
          "type": "address"
        },
        {
          "internalType": "uint256",
          "name": "tokenId",
          "type": "uint256"
        },
        {
          "internalType": "bytes",
          "name": "data",
          "type": "bytes"
        }
      ],
      "name": "safeTransferFrom",
      "outputs": [],
      "stateMutability": "nonpayable",
      "type": "function"
    },
    {
      "inputs": [
        {
          "internalType": "address",
          "name": "operator",
          "type": "address"
        },
        {
          "internalType": "bool",
          "name": "approved",
          "type": "bool"
        }
      ],
      "name": "setApprovalForAll",
      "outputs": [],
      "stateMutability": "nonpayable",
      "type": "function"
    },
    {
      "inputs": [
        {
          "internalType": "string",
          "name": "_string",
          "type": "string"
        },
        {
          "internalType": "string",
          "name": "_delimiter",
          "type": "string"
        }
      ],
      "name": "splitString",
      "outputs": [
        {
          "internalType": "string",
          "name": "",
          "type": "string"
        },
        {
          "internalType": "string",
          "name": "",
          "type": "string"
        }
      ],
      "stateMutability": "pure",
      "type": "function"
    },
    {
      "inputs": [
        {
          "internalType": "bytes4",
          "name": "interfaceId",
          "type": "bytes4"
        }
      ],
      "name": "supportsInterface",
      "outputs": [
        {
          "internalType": "bool",
          "name": "",
          "type": "bool"
        }
      ],
      "stateMutability": "view",
      "type": "function"
    },
    {
      "inputs": [],
      "name": "symbol",
      "outputs": [
        {
          "internalType": "string",
          "name": "",
          "type": "string"
        }
      ],
      "stateMutability": "view",
      "type": "function"
    },
    {
      "inputs": [
        {
          "internalType": "uint256",
          "name": "tokenId",
          "type": "uint256"
        }
      ],
      "name": "tokenURI",
      "outputs": [
        {
          "internalType": "string",
          "name": "",
          "type": "string"
        }
      ],
      "stateMutability": "view",
      "type": "function"
    },
    {
      "inputs": [
        {
          "internalType": "address",
          "name": "from",
          "type": "address"
        },
        {
          "internalType": "address",
          "name": "to",
          "type": "address"
        },
        {
          "internalType": "uint256",
          "name": "tokenId",
          "type": "uint256"
        }
      ],
      "name": "transferFrom",
      "outputs": [],
      "stateMutability": "nonpayable",
      "type": "function"
    }
  ],
  "bytecode": "0x60806040523480156200001157600080fd5b5060405162004261380380620042618339818101604052810190620000379190620004ac565b828281600090816200004a9190620007c6565b5080600190816200005c9190620007c6565b50505083600860006101000a81548173ffffffffffffffffffffffffffffffffffffffff021916908373ffffffffffffffffffffffffffffffffffffffff1602179055508260099081620000b19190620007c6565b5081600a9081620000c39190620007c6565b5080600b9081620000d59190620007c6565b506200010b600860009054906101000a900473ffffffffffffffffffffffffffffffffffffffff1660016200011560201b60201c565b505050506200096a565b62000137620001296200013b60201b60201c565b83836200014360201b60201c565b5050565b600033905090565b8173ffffffffffffffffffffffffffffffffffffffff168373ffffffffffffffffffffffffffffffffffffffff1603620001b4576040517f08c379a0000000000000000000000000000000000000000000000000000000008152600401620001ab906200090e565b60405180910390fd5b80600560008573ffffffffffffffffffffffffffffffffffffffff1673ffffffffffffffffffffffffffffffffffffffff16815260200190815260200160002060008473ffffffffffffffffffffffffffffffffffffffff1673ffffffffffffffffffffffffffffffffffffffff16815260200190815260200160002060006101000a81548160ff0219169083151502179055508173ffffffffffffffffffffffffffffffffffffffff168373ffffffffffffffffffffffffffffffffffffffff167f17307eab39ab6107e8899845ad3d59bd9653f200f220920489ca2b5937696c3183604051620002a791906200094d565b60405180910390a3505050565b6000604051905090565b600080fd5b600080fd5b600073ffffffffffffffffffffffffffffffffffffffff82169050919050565b6000620002f582620002c8565b9050919050565b6200030781620002e8565b81146200031357600080fd5b50565b6000815190506200032781620002fc565b92915050565b600080fd5b600080fd5b6000601f19601f8301169050919050565b7f4e487b7100000000000000000000000000000000000000000000000000000000600052604160045260246000fd5b620003828262000337565b810181811067ffffffffffffffff82111715620003a457620003a362000348565b5b80604052505050565b6000620003b9620002b4565b9050620003c7828262000377565b919050565b600067ffffffffffffffff821115620003ea57620003e962000348565b5b620003f58262000337565b9050602081019050919050565b60005b838110156200042257808201518184015260208101905062000405565b60008484015250505050565b6000620004456200043f84620003cc565b620003ad565b90508281526020810184848401111562000464576200046362000332565b5b6200047184828562000402565b509392505050565b600082601f8301126200049157620004906200032d565b5b8151620004a38482602086016200042e565b91505092915050565b60008060008060808587031215620004c957620004c8620002be565b5b6000620004d98782880162000316565b945050602085015167ffffffffffffffff811115620004fd57620004fc620002c3565b5b6200050b8782880162000479565b935050604085015167ffffffffffffffff8111156200052f576200052e620002c3565b5b6200053d8782880162000479565b925050606085015167ffffffffffffffff811115620005615762000560620002c3565b5b6200056f8782880162000479565b91505092959194509250565b600081519050919050565b7f4e487b7100000000000000000000000000000000000000000000000000000000600052602260045260246000fd5b60006002820490506001821680620005ce57607f821691505b602082108103620005e457620005e362000586565b5b50919050565b60008190508160005260206000209050919050565b60006020601f8301049050919050565b600082821b905092915050565b6000600883026200064e7fffffffffffffffffffffffffffffffffffffffffffffffffffffffffffffffff826200060f565b6200065a86836200060f565b95508019841693508086168417925050509392505050565b6000819050919050565b6000819050919050565b6000620006a7620006a16200069b8462000672565b6200067c565b62000672565b9050919050565b6000819050919050565b620006c38362000686565b620006db620006d282620006ae565b8484546200061c565b825550505050565b600090565b620006f2620006e3565b620006ff818484620006b8565b505050565b5b8181101562000727576200071b600082620006e8565b60018101905062000705565b5050565b601f82111562000776576200074081620005ea565b6200074b84620005ff565b810160208510156200075b578190505b620007736200076a85620005ff565b83018262000704565b50505b505050565b600082821c905092915050565b60006200079b600019846008026200077b565b1980831691505092915050565b6000620007b6838362000788565b9150826002028217905092915050565b620007d1826200057b565b67ffffffffffffffff811115620007ed57620007ec62000348565b5b620007f98254620005b5565b620008068282856200072b565b600060209050601f8311600181146200083e576000841562000829578287015190505b620008358582620007a8565b865550620008a5565b601f1984166200084e86620005ea565b60005b82811015620008785784890151825560018201915060208501945060208101905062000851565b8683101562000898578489015162000894601f89168262000788565b8355505b6001600288020188555050505b505050505050565b600082825260208201905092915050565b7f4552433732313a20617070726f766520746f2063616c6c657200000000000000600082015250565b6000620008f6601983620008ad565b91506200090382620008be565b602082019050919050565b600060208201905081810360008301526200092981620008e7565b9050919050565b60008115159050919050565b620009478162000930565b82525050565b60006020820190506200096460008301846200093c565b92915050565b6138e7806200097a6000396000f3fe6080604052600436106101095760003560e01c806395d89b4111610095578063bcf16f2d11610064578063bcf16f2d1461037e578063c87b56dd146103a9578063d85d3d27146103e6578063e985e9c51461040f578063f43111381461044c57610109565b806395d89b41146102e5578063a22cb46514610310578063ac517f7814610339578063b88d4fde1461035557610109565b806323b872dd116100dc57806323b872dd146101dc57806342842e0e146102055780636352211e1461022e5780636d6de8aa1461026b57806370a08231146102a857610109565b806301ffc9a71461010e57806306fdde031461014b578063081812fc14610176578063095ea7b3146101b3575b600080fd5b34801561011a57600080fd5b5061013560048036038101906101309190611fe7565b61048a565b604051610142919061202f565b60405180910390f35b34801561015757600080fd5b506101606104eb565b60405161016d91906120da565b60405180910390f35b34801561018257600080fd5b5061019d60048036038101906101989190612132565b61057d565b6040516101aa91906121a0565b60405180910390f35b3480156101bf57600080fd5b506101da60048036038101906101d591906121e7565b6105c3565b005b3480156101e857600080fd5b5061020360048036038101906101fe9190612227565b6106da565b005b34801561021157600080fd5b5061022c60048036038101906102279190612227565b61073a565b005b34801561023a57600080fd5b5061025560048036038101906102509190612132565b61075a565b60405161026291906121a0565b60405180910390f35b34801561027757600080fd5b50610292600480360381019061028d91906123af565b6107e0565b60405161029f91906120da565b60405180910390f35b3480156102b457600080fd5b506102cf60048036038101906102ca919061243a565b610864565b6040516102dc9190612476565b60405180910390f35b3480156102f157600080fd5b506102fa61091b565b60405161030791906120da565b60405180910390f35b34801561031c57600080fd5b50610337600480360381019061033291906124bd565b6109ad565b005b610353600480360381019061034e91906124fd565b6109c3565b005b34801561036157600080fd5b5061037c600480360381019061037791906125fa565b610a6e565b005b34801561038a57600080fd5b50610393610ad0565b6040516103a09190612476565b60405180910390f35b3480156103b557600080fd5b506103d060048036038101906103cb9190612132565b610ada565b6040516103dd91906120da565b60405180910390f35b3480156103f257600080fd5b5061040d6004803603810190610408919061267d565b610bec565b005b34801561041b57600080fd5b50610436600480360381019061043191906126c6565b610c49565b604051610443919061202f565b60405180910390f35b34801561045857600080fd5b50610473600480360381019061046e9190612706565b610cdd565b60405161048192919061277e565b60405180910390f35b6000634906490660e01b7bffffffffffffffffffffffffffffffffffffffffffffffffffffffff1916827bffffffffffffffffffffffffffffffffffffffffffffffffffffffff191614806104e457506104e382610e38565b5b9050919050565b6060600080546104fa906127e4565b80601f0160208091040260200160405190810160405280929190818152602001828054610526906127e4565b80156105735780601f1061054857610100808354040283529160200191610573565b820191906000526020600020905b81548152906001019060200180831161055657829003601f168201915b5050505050905090565b600061058882610f1a565b6004600083815260200190815260200160002060009054906101000a900473ffffffffffffffffffffffffffffffffffffffff169050919050565b60006105ce8261075a565b90508073ffffffffffffffffffffffffffffffffffffffff168373ffffffffffffffffffffffffffffffffffffffff160361063e576040517f08c379a000000000000000000000000000000000000000000000000000000000815260040161063590612887565b60405180910390fd5b8073ffffffffffffffffffffffffffffffffffffffff1661065d610f65565b73ffffffffffffffffffffffffffffffffffffffff16148061068c575061068b81610686610f65565b610c49565b5b6106cb576040517f08c379a00000000000000000000000000000000000000000000000000000000081526004016106c290612919565b60405180910390fd5b6106d58383610f6d565b505050565b6106eb6106e5610f65565b82611026565b61072a576040517f08c379a0000000000000000000000000000000000000000000000000000000008152600401610721906129ab565b60405180910390fd5b6107358383836110bb565b505050565b61075583838360405180602001604052806000815250610a6e565b505050565b600080610766836113b4565b9050600073ffffffffffffffffffffffffffffffffffffffff168173ffffffffffffffffffffffffffffffffffffffff16036107d7576040517f08c379a00000000000000000000000000000000000000000000000000000000081526004016107ce90612a17565b60405180910390fd5b80915050919050565b6060600061083260096107f2876113f1565b600b876107fe8a6113f1565b886108088c6113f1565b60405160200161081e9796959493929190612ddd565b6040516020818303038152906040526114bf565b90506000816040516020016108479190612ed0565b604051602081830303815290604052905080925050509392505050565b60008073ffffffffffffffffffffffffffffffffffffffff168273ffffffffffffffffffffffffffffffffffffffff16036108d4576040517f08c379a00000000000000000000000000000000000000000000000000000000081526004016108cb90612f64565b60405180910390fd5b600360008373ffffffffffffffffffffffffffffffffffffffff1673ffffffffffffffffffffffffffffffffffffffff168152602001908152602001600020549050919050565b60606001805461092a906127e4565b80601f0160208091040260200160405190810160405280929190818152602001828054610956906127e4565b80156109a35780601f10610978576101008083540402835291602001916109a3565b820191906000526020600020905b81548152906001019060200180831161098657829003601f168201915b5050505050905090565b6109bf6109b8610f65565b8383611622565b5050565b60608083600c81905550610a0c836040518060400160405280600181526020017f2e00000000000000000000000000000000000000000000000000000000000000815250610cdd565b8092508193505050600080600090505b85811015610a6657610a2e600761178e565b91506000610a3d8386866107e0565b9050610a4881610bec565b610a52600761179c565b508080610a5e90612fb3565b915050610a1c565b505050505050565b610a7f610a79610f65565b83611026565b610abe576040517f08c379a0000000000000000000000000000000000000000000000000000000008152600401610ab5906129ab565b60405180910390fd5b610aca848484846117b2565b50505050565b6000600c54905090565b6060610ae582610f1a565b6000600660008481526020019081526020016000208054610b05906127e4565b80601f0160208091040260200160405190810160405280929190818152602001828054610b31906127e4565b8015610b7e5780601f10610b5357610100808354040283529160200191610b7e565b820191906000526020600020905b815481529060010190602001808311610b6157829003601f168201915b505050505090506000610b8f61180e565b90506000815103610ba4578192505050610be7565b600082511115610bd9578082604051602001610bc1929190612ffb565b60405160208183030381529060405292505050610be7565b610be284611825565b925050505b919050565b6000610bf8600761178e565b9050610c04338261188d565b610c0e81836118ab565b7fd9dc24857f317ed9abbbb42e920ede0104231eb1d3d70236a74887ffaf15986881604051610c3d9190612476565b60405180910390a15050565b6000600560008473ffffffffffffffffffffffffffffffffffffffff1673ffffffffffffffffffffffffffffffffffffffff16815260200190815260200160002060008373ffffffffffffffffffffffffffffffffffffffff1673ffffffffffffffffffffffffffffffffffffffff16815260200190815260200160002060009054906101000a900460ff16905092915050565b606080600084905060006001905060608060005b8451811015610e265787600081518110610d0e57610d0d61301f565b5b602001015160f81c60f81b7effffffffffffffffffffffffffffffffffffffffffffffffffffffffffffff1916858281518110610d4e57610d4d61301f565b5b602001015160f81c60f81b7effffffffffffffffffffffffffffffffffffffffffffffffffffffffffffff191603610d8557600093505b8315610dd15782858281518110610d9f57610d9e61301f565b5b602001015160f81c60f81b604051602001610dbb92919061309b565b6040516020818303038152906040529250610e13565b81858281518110610de557610de461301f565b5b602001015160f81c60f81b604051602001610e0192919061309b565b60405160208183030381529060405291505b8080610e1e90612fb3565b915050610cf1565b50818195509550505050509250929050565b60007f80ac58cd000000000000000000000000000000000000000000000000000000007bffffffffffffffffffffffffffffffffffffffffffffffffffffffff1916827bffffffffffffffffffffffffffffffffffffffffffffffffffffffff19161480610f0357507f5b5e139f000000000000000000000000000000000000000000000000000000007bffffffffffffffffffffffffffffffffffffffffffffffffffffffff1916827bffffffffffffffffffffffffffffffffffffffffffffffffffffffff1916145b80610f135750610f128261194f565b5b9050919050565b610f23816119b9565b610f62576040517f08c379a0000000000000000000000000000000000000000000000000000000008152600401610f5990612a17565b60405180910390fd5b50565b600033905090565b816004600083815260200190815260200160002060006101000a81548173ffffffffffffffffffffffffffffffffffffffff021916908373ffffffffffffffffffffffffffffffffffffffff160217905550808273ffffffffffffffffffffffffffffffffffffffff16610fe08361075a565b73ffffffffffffffffffffffffffffffffffffffff167f8c5be1e5ebec7d5bd14f71427d1e84f3dd0314c0f7b2291e5b200ac8c7c3b92560405160405180910390a45050565b6000806110328361075a565b90508073ffffffffffffffffffffffffffffffffffffffff168473ffffffffffffffffffffffffffffffffffffffff16148061107457506110738185610c49565b5b806110b257508373ffffffffffffffffffffffffffffffffffffffff1661109a8461057d565b73ffffffffffffffffffffffffffffffffffffffff16145b91505092915050565b8273ffffffffffffffffffffffffffffffffffffffff166110db8261075a565b73ffffffffffffffffffffffffffffffffffffffff1614611131576040517f08c379a000000000000000000000000000000000000000000000000000000000815260040161112890613135565b60405180910390fd5b600073ffffffffffffffffffffffffffffffffffffffff168273ffffffffffffffffffffffffffffffffffffffff16036111a0576040517f08c379a0000000000000000000000000000000000000000000000000000000008152600401611197906131c7565b60405180910390fd5b6111ad83838360016119fa565b8273ffffffffffffffffffffffffffffffffffffffff166111cd8261075a565b73ffffffffffffffffffffffffffffffffffffffff1614611223576040517f08c379a000000000000000000000000000000000000000000000000000000000815260040161121a90613135565b60405180910390fd5b6004600082815260200190815260200160002060006101000a81549073ffffffffffffffffffffffffffffffffffffffff02191690556001600360008573ffffffffffffffffffffffffffffffffffffffff1673ffffffffffffffffffffffffffffffffffffffff168152602001908152602001600020600082825403925050819055506001600360008473ffffffffffffffffffffffffffffffffffffffff1673ffffffffffffffffffffffffffffffffffffffff16815260200190815260200160002060008282540192505081905550816002600083815260200190815260200160002060006101000a81548173ffffffffffffffffffffffffffffffffffffffff021916908373ffffffffffffffffffffffffffffffffffffffff160217905550808273ffffffffffffffffffffffffffffffffffffffff168473ffffffffffffffffffffffffffffffffffffffff167fddf252ad1be2c89b69c2b068fc378daa952ba7f163c4a11628f55a4df523b3ef60405160405180910390a46113af8383836001611a00565b505050565b60006002600083815260200190815260200160002060009054906101000a900473ffffffffffffffffffffffffffffffffffffffff169050919050565b60606000600161140084611a06565b01905060008167ffffffffffffffff81111561141f5761141e612284565b5b6040519080825280601f01601f1916602001820160405280156114515781602001600182028036833780820191505090505b509050600082602001820190505b6001156114b4578080600190039150507f3031323334353637383961626364656600000000000000000000000000000000600a86061a8153600a85816114a8576114a76131e7565b5b0494506000850361145f575b819350505050919050565b606060008251036114e15760405180602001604052806000815250905061161d565b600060405180606001604052806040815260200161387260409139905060006003600285516115109190613216565b61151a919061324a565b6004611526919061327b565b67ffffffffffffffff81111561153f5761153e612284565b5b6040519080825280601f01601f1916602001820160405280156115715781602001600182028036833780820191505090505b509050600182016020820185865187015b808210156115dd576003820191508151603f8160121c168501518453600184019350603f81600c1c168501518453600184019350603f8160061c168501518453600184019350603f8116850151845360018401935050611582565b50506003865106600181146115f9576002811461160c57611614565b603d6001830353603d6002830353611614565b603d60018303535b50505080925050505b919050565b8173ffffffffffffffffffffffffffffffffffffffff168373ffffffffffffffffffffffffffffffffffffffff1603611690576040517f08c379a000000000000000000000000000000000000000000000000000000000815260040161168790613309565b60405180910390fd5b80600560008573ffffffffffffffffffffffffffffffffffffffff1673ffffffffffffffffffffffffffffffffffffffff16815260200190815260200160002060008473ffffffffffffffffffffffffffffffffffffffff1673ffffffffffffffffffffffffffffffffffffffff16815260200190815260200160002060006101000a81548160ff0219169083151502179055508173ffffffffffffffffffffffffffffffffffffffff168373ffffffffffffffffffffffffffffffffffffffff167f17307eab39ab6107e8899845ad3d59bd9653f200f220920489ca2b5937696c3183604051611781919061202f565b60405180910390a3505050565b600081600001549050919050565b6001816000016000828254019250508190555050565b6117bd8484846110bb565b6117c984848484611b59565b611808576040517f08c379a00000000000000000000000000000000000000000000000000000000081526004016117ff9061339b565b60405180910390fd5b50505050565b606060405180602001604052806000815250905090565b606061183082610f1a565b600061183a61180e565b9050600081511161185a5760405180602001604052806000815250611885565b80611864846113f1565b604051602001611875929190612ffb565b6040516020818303038152906040525b915050919050565b6118a7828260405180602001604052806000815250611ce0565b5050565b6118b4826119b9565b6118f3576040517f08c379a00000000000000000000000000000000000000000000000000000000081526004016118ea9061342d565b60405180910390fd5b8060066000848152602001908152602001600020908161191391906135e4565b507ff8e1a15aba9398e019f0b49df1a4fde98ee17ae345cb5f6b5e2c27f5033e8ce7826040516119439190612476565b60405180910390a15050565b60007f01ffc9a7000000000000000000000000000000000000000000000000000000007bffffffffffffffffffffffffffffffffffffffffffffffffffffffff1916827bffffffffffffffffffffffffffffffffffffffffffffffffffffffff1916149050919050565b60008073ffffffffffffffffffffffffffffffffffffffff166119db836113b4565b73ffffffffffffffffffffffffffffffffffffffff1614159050919050565b50505050565b50505050565b600080600090507a184f03e93ff9f4daa797ed6e38ed64bf6a1f0100000000000000008310611a64577a184f03e93ff9f4daa797ed6e38ed64bf6a1f0100000000000000008381611a5a57611a596131e7565b5b0492506040810190505b6d04ee2d6d415b85acef81000000008310611aa1576d04ee2d6d415b85acef81000000008381611a9757611a966131e7565b5b0492506020810190505b662386f26fc100008310611ad057662386f26fc100008381611ac657611ac56131e7565b5b0492506010810190505b6305f5e1008310611af9576305f5e1008381611aef57611aee6131e7565b5b0492506008810190505b6127108310611b1e576127108381611b1457611b136131e7565b5b0492506004810190505b60648310611b415760648381611b3757611b366131e7565b5b0492506002810190505b600a8310611b50576001810190505b80915050919050565b6000611b7a8473ffffffffffffffffffffffffffffffffffffffff16611d3b565b15611cd3578373ffffffffffffffffffffffffffffffffffffffff1663150b7a02611ba3610f65565b8786866040518563ffffffff1660e01b8152600401611bc5949392919061370b565b6020604051808303816000875af1925050508015611c0157506040513d601f19601f82011682018060405250810190611bfe919061376c565b60015b611c83573d8060008114611c31576040519150601f19603f3d011682016040523d82523d6000602084013e611c36565b606091505b506000815103611c7b576040517f08c379a0000000000000000000000000000000000000000000000000000000008152600401611c729061339b565b60405180910390fd5b805181602001fd5b63150b7a0260e01b7bffffffffffffffffffffffffffffffffffffffffffffffffffffffff1916817bffffffffffffffffffffffffffffffffffffffffffffffffffffffff191614915050611cd8565b600190505b949350505050565b611cea8383611d5e565b611cf76000848484611b59565b611d36576040517f08c379a0000000000000000000000000000000000000000000000000000000008152600401611d2d9061339b565b60405180910390fd5b505050565b6000808273ffffffffffffffffffffffffffffffffffffffff163b119050919050565b600073ffffffffffffffffffffffffffffffffffffffff168273ffffffffffffffffffffffffffffffffffffffff1603611dcd576040517f08c379a0000000000000000000000000000000000000000000000000000000008152600401611dc4906137e5565b60405180910390fd5b611dd6816119b9565b15611e16576040517f08c379a0000000000000000000000000000000000000000000000000000000008152600401611e0d90613851565b60405180910390fd5b611e246000838360016119fa565b611e2d816119b9565b15611e6d576040517f08c379a0000000000000000000000000000000000000000000000000000000008152600401611e6490613851565b60405180910390fd5b6001600360008473ffffffffffffffffffffffffffffffffffffffff1673ffffffffffffffffffffffffffffffffffffffff16815260200190815260200160002060008282540192505081905550816002600083815260200190815260200160002060006101000a81548173ffffffffffffffffffffffffffffffffffffffff021916908373ffffffffffffffffffffffffffffffffffffffff160217905550808273ffffffffffffffffffffffffffffffffffffffff16600073ffffffffffffffffffffffffffffffffffffffff167fddf252ad1be2c89b69c2b068fc378daa952ba7f163c4a11628f55a4df523b3ef60405160405180910390a4611f77600083836001611a00565b5050565b6000604051905090565b600080fd5b600080fd5b60007fffffffff0000000000000000000000000000000000000000000000000000000082169050919050565b611fc481611f8f565b8114611fcf57600080fd5b50565b600081359050611fe181611fbb565b92915050565b600060208284031215611ffd57611ffc611f85565b5b600061200b84828501611fd2565b91505092915050565b60008115159050919050565b61202981612014565b82525050565b60006020820190506120446000830184612020565b92915050565b600081519050919050565b600082825260208201905092915050565b60005b83811015612084578082015181840152602081019050612069565b60008484015250505050565b6000601f19601f8301169050919050565b60006120ac8261204a565b6120b68185612055565b93506120c6818560208601612066565b6120cf81612090565b840191505092915050565b600060208201905081810360008301526120f481846120a1565b905092915050565b6000819050919050565b61210f816120fc565b811461211a57600080fd5b50565b60008135905061212c81612106565b92915050565b60006020828403121561214857612147611f85565b5b60006121568482850161211d565b91505092915050565b600073ffffffffffffffffffffffffffffffffffffffff82169050919050565b600061218a8261215f565b9050919050565b61219a8161217f565b82525050565b60006020820190506121b56000830184612191565b92915050565b6121c48161217f565b81146121cf57600080fd5b50565b6000813590506121e1816121bb565b92915050565b600080604083850312156121fe576121fd611f85565b5b600061220c858286016121d2565b925050602061221d8582860161211d565b9150509250929050565b6000806000606084860312156122405761223f611f85565b5b600061224e868287016121d2565b935050602061225f868287016121d2565b92505060406122708682870161211d565b9150509250925092565b600080fd5b600080fd5b7f4e487b7100000000000000000000000000000000000000000000000000000000600052604160045260246000fd5b6122bc82612090565b810181811067ffffffffffffffff821117156122db576122da612284565b5b80604052505050565b60006122ee611f7b565b90506122fa82826122b3565b919050565b600067ffffffffffffffff82111561231a57612319612284565b5b61232382612090565b9050602081019050919050565b82818337600083830152505050565b600061235261234d846122ff565b6122e4565b90508281526020810184848401111561236e5761236d61227f565b5b612379848285612330565b509392505050565b600082601f8301126123965761239561227a565b5b81356123a684826020860161233f565b91505092915050565b6000806000606084860312156123c8576123c7611f85565b5b60006123d68682870161211d565b935050602084013567ffffffffffffffff8111156123f7576123f6611f8a565b5b61240386828701612381565b925050604084013567ffffffffffffffff81111561242457612423611f8a565b5b61243086828701612381565b9150509250925092565b6000602082840312156124505761244f611f85565b5b600061245e848285016121d2565b91505092915050565b612470816120fc565b82525050565b600060208201905061248b6000830184612467565b92915050565b61249a81612014565b81146124a557600080fd5b50565b6000813590506124b781612491565b92915050565b600080604083850312156124d4576124d3611f85565b5b60006124e2858286016121d2565b92505060206124f3858286016124a8565b9150509250929050565b6000806040838503121561251457612513611f85565b5b60006125228582860161211d565b925050602083013567ffffffffffffffff81111561254357612542611f8a565b5b61254f85828601612381565b9150509250929050565b600067ffffffffffffffff82111561257457612573612284565b5b61257d82612090565b9050602081019050919050565b600061259d61259884612559565b6122e4565b9050828152602081018484840111156125b9576125b861227f565b5b6125c4848285612330565b509392505050565b600082601f8301126125e1576125e061227a565b5b81356125f184826020860161258a565b91505092915050565b6000806000806080858703121561261457612613611f85565b5b6000612622878288016121d2565b9450506020612633878288016121d2565b93505060406126448782880161211d565b925050606085013567ffffffffffffffff81111561266557612664611f8a565b5b612671878288016125cc565b91505092959194509250565b60006020828403121561269357612692611f85565b5b600082013567ffffffffffffffff8111156126b1576126b0611f8a565b5b6126bd84828501612381565b91505092915050565b600080604083850312156126dd576126dc611f85565b5b60006126eb858286016121d2565b92505060206126fc858286016121d2565b9150509250929050565b6000806040838503121561271d5761271c611f85565b5b600083013567ffffffffffffffff81111561273b5761273a611f8a565b5b61274785828601612381565b925050602083013567ffffffffffffffff81111561276857612767611f8a565b5b61277485828601612381565b9150509250929050565b6000604082019050818103600083015261279881856120a1565b905081810360208301526127ac81846120a1565b90509392505050565b7f4e487b7100000000000000000000000000000000000000000000000000000000600052602260045260246000fd5b600060028204905060018216806127fc57607f821691505b60208210810361280f5761280e6127b5565b5b50919050565b7f4552433732313a20617070726f76616c20746f2063757272656e74206f776e6560008201527f7200000000000000000000000000000000000000000000000000000000000000602082015250565b6000612871602183612055565b915061287c82612815565b604082019050919050565b600060208201905081810360008301526128a081612864565b9050919050565b7f4552433732313a20617070726f76652063616c6c6572206973206e6f7420746f60008201527f6b656e206f776e6572206f7220617070726f76656420666f7220616c6c000000602082015250565b6000612903603d83612055565b915061290e826128a7565b604082019050919050565b60006020820190508181036000830152612932816128f6565b9050919050565b7f4552433732313a2063616c6c6572206973206e6f7420746f6b656e206f776e6560008201527f72206f7220617070726f76656400000000000000000000000000000000000000602082015250565b6000612995602d83612055565b91506129a082612939565b604082019050919050565b600060208201905081810360008301526129c481612988565b9050919050565b7f4552433732313a20696e76616c696420746f6b656e2049440000000000000000600082015250565b6000612a01601883612055565b9150612a0c826129cb565b602082019050919050565b60006020820190508181036000830152612a30816129f4565b9050919050565b600081905092915050565b7f7b226e616d65223a202200000000000000000000000000000000000000000000600082015250565b6000612a78600a83612a37565b9150612a8382612a42565b600a82019050919050565b60008190508160005260206000209050919050565b60008154612ab0816127e4565b612aba8186612a37565b94506001821660008114612ad55760018114612aea57612b1d565b60ff1983168652811515820286019350612b1d565b612af385612a8e565b60005b83811015612b1557815481890152600182019150602081019050612af6565b838801955050505b50505092915050565b7f2023000000000000000000000000000000000000000000000000000000000000600082015250565b6000612b5c600283612a37565b9150612b6782612b26565b600282019050919050565b6000612b7d8261204a565b612b878185612a37565b9350612b97818560208601612066565b80840191505092915050565b7f222c20226465736372697074696f6e223a202200000000000000000000000000600082015250565b6000612bd9601383612a37565b9150612be482612ba3565b601382019050919050565b7f222c2022696d616765223a202200000000000000000000000000000000000000600082015250565b6000612c25600d83612a37565b9150612c3082612bef565b600d82019050919050565b7f222c202261747472696275746573223a205b7b2274726169745f74797065223a60008201527f202253657269616c4e6f222c202276616c7565223a2022544958463143412d3260208201527f303233313031372d000000000000000000000000000000000000000000000000604082015250565b6000612cbd604883612a37565b9150612cc882612c3b565b604882019050919050565b7f227d2c207b2274726169745f74797065223a202243617465676f7279222c202260008201527f76616c7565223a2022506164646f636b20436c7562227d2c207b22747261697460208201527f5f74797065223a2022497373756564222c202276616c7565223a20225469636b60408201527f657420426f78227d2c207b2274726169745f74797065223a2022526163655f5360608201527f63686564756c65222c202276616c7565223a2022323032332f31302f3137227d60808201527f5d7d00000000000000000000000000000000000000000000000000000000000060a082015250565b6000612dc760a283612a37565b9150612dd282612cd3565b60a282019050919050565b6000612de882612a6b565b9150612df4828a612aa3565b9150612dff82612b4f565b9150612e0b8289612b72565b9150612e1682612bcc565b9150612e228288612aa3565b9150612e2d82612c18565b9150612e398287612b72565b9150612e458286612b72565b9150612e518285612b72565b9150612e5c82612cb0565b9150612e688284612b72565b9150612e7382612dba565b915081905098975050505050505050565b7f646174613a6170706c69636174696f6e2f6a736f6e3b6261736536342c000000600082015250565b6000612eba601d83612a37565b9150612ec582612e84565b601d82019050919050565b6000612edb82612ead565b9150612ee78284612b72565b915081905092915050565b7f4552433732313a2061646472657373207a65726f206973206e6f74206120766160008201527f6c6964206f776e65720000000000000000000000000000000000000000000000602082015250565b6000612f4e602983612055565b9150612f5982612ef2565b604082019050919050565b60006020820190508181036000830152612f7d81612f41565b9050919050565b7f4e487b7100000000000000000000000000000000000000000000000000000000600052601160045260246000fd5b6000612fbe826120fc565b91507fffffffffffffffffffffffffffffffffffffffffffffffffffffffffffffffff8203612ff057612fef612f84565b5b600182019050919050565b60006130078285612b72565b91506130138284612b72565b91508190509392505050565b7f4e487b7100000000000000000000000000000000000000000000000000000000600052603260045260246000fd5b60007fff0000000000000000000000000000000000000000000000000000000000000082169050919050565b6000819050919050565b6130956130908261304e565b61307a565b82525050565b60006130a78285612b72565b91506130b38284613084565b6001820191508190509392505050565b7f4552433732313a207472616e736665722066726f6d20696e636f72726563742060008201527f6f776e6572000000000000000000000000000000000000000000000000000000602082015250565b600061311f602583612055565b915061312a826130c3565b604082019050919050565b6000602082019050818103600083015261314e81613112565b9050919050565b7f4552433732313a207472616e7366657220746f20746865207a65726f2061646460008201527f7265737300000000000000000000000000000000000000000000000000000000602082015250565b60006131b1602483612055565b91506131bc82613155565b604082019050919050565b600060208201905081810360008301526131e0816131a4565b9050919050565b7f4e487b7100000000000000000000000000000000000000000000000000000000600052601260045260246000fd5b6000613221826120fc565b915061322c836120fc565b925082820190508082111561324457613243612f84565b5b92915050565b6000613255826120fc565b9150613260836120fc565b9250826132705761326f6131e7565b5b828204905092915050565b6000613286826120fc565b9150613291836120fc565b925082820261329f816120fc565b915082820484148315176132b6576132b5612f84565b5b5092915050565b7f4552433732313a20617070726f766520746f2063616c6c657200000000000000600082015250565b60006132f3601983612055565b91506132fe826132bd565b602082019050919050565b60006020820190508181036000830152613322816132e6565b9050919050565b7f4552433732313a207472616e7366657220746f206e6f6e20455243373231526560008201527f63656976657220696d706c656d656e7465720000000000000000000000000000602082015250565b6000613385603283612055565b915061339082613329565b604082019050919050565b600060208201905081810360008301526133b481613378565b9050919050565b7f45524337323155524953746f726167653a2055524920736574206f66206e6f6e60008201527f6578697374656e7420746f6b656e000000000000000000000000000000000000602082015250565b6000613417602e83612055565b9150613422826133bb565b604082019050919050565b600060208201905081810360008301526134468161340a565b9050919050565b60006020601f8301049050919050565b600082821b905092915050565b60006008830261349a7fffffffffffffffffffffffffffffffffffffffffffffffffffffffffffffffff8261345d565b6134a4868361345d565b95508019841693508086168417925050509392505050565b6000819050919050565b60006134e16134dc6134d7846120fc565b6134bc565b6120fc565b9050919050565b6000819050919050565b6134fb836134c6565b61350f613507826134e8565b84845461346a565b825550505050565b600090565b613524613517565b61352f8184846134f2565b505050565b5b818110156135535761354860008261351c565b600181019050613535565b5050565b601f8211156135985761356981612a8e565b6135728461344d565b81016020851015613581578190505b61359561358d8561344d565b830182613534565b50505b505050565b600082821c905092915050565b60006135bb6000198460080261359d565b1980831691505092915050565b60006135d483836135aa565b9150826002028217905092915050565b6135ed8261204a565b67ffffffffffffffff81111561360657613605612284565b5b61361082546127e4565b61361b828285613557565b600060209050601f83116001811461364e576000841561363c578287015190505b61364685826135c8565b8655506136ae565b601f19841661365c86612a8e565b60005b828110156136845784890151825560018201915060208501945060208101905061365f565b868310156136a1578489015161369d601f8916826135aa565b8355505b6001600288020188555050505b505050505050565b600081519050919050565b600082825260208201905092915050565b60006136dd826136b6565b6136e781856136c1565b93506136f7818560208601612066565b61370081612090565b840191505092915050565b60006080820190506137206000830187612191565b61372d6020830186612191565b61373a6040830185612467565b818103606083015261374c81846136d2565b905095945050505050565b60008151905061376681611fbb565b92915050565b60006020828403121561378257613781611f85565b5b600061379084828501613757565b91505092915050565b7f4552433732313a206d696e7420746f20746865207a65726f2061646472657373600082015250565b60006137cf602083612055565b91506137da82613799565b602082019050919050565b600060208201905081810360008301526137fe816137c2565b9050919050565b7f4552433732313a20746f6b656e20616c7265616479206d696e74656400000000600082015250565b600061383b601c83612055565b915061384682613805565b602082019050919050565b6000602082019050818103600083015261386a8161382e565b905091905056fe4142434445464748494a4b4c4d4e4f505152535455565758595a6162636465666768696a6b6c6d6e6f707172737475767778797a303132333435363738392b2fa2646970667358221220554e4b59680555a11ac1a6dd70263caa6def2e909c2d3248fa4c4fcffc65844a64736f6c63430008150033",
  "linkReferences": {},
  "deployedLinkReferences": {}
}